{
	"data": {
		"bytecode": {
			"linkReferences": {},
			"object": "608060405260016006553480156200001657600080fd5b50620000376200002b620001b460201b60201c565b620001bc60201b60201c565b600180819055506000600260006101000a81548160ff021916908315150217905550620000696200028060201b60201c565b7305c0928f481e9993f33dc0af0f1372d08a3a3873600960006101000a81548173ffffffffffffffffffffffffffffffffffffffff021916908373ffffffffffffffffffffffffffffffffffffffff1602179055507305c0928f481e9993f33dc0af0f1372d08a3a3873600c60006101000a81548173ffffffffffffffffffffffffffffffffffffffff021916908373ffffffffffffffffffffffffffffffffffffffff16021790555062000146600960009054906101000a900473ffffffffffffffffffffffffffffffffffffffff166200032860201b60201c565b739326bfa02add2366b30bacb125260af641031331600860006101000a81548173ffffffffffffffffffffffffffffffffffffffff021916908373ffffffffffffffffffffffffffffffffffffffff16021790555061270b600b81905550620186a0600a819055506200044c565b600033905090565b60008060009054906101000a900473ffffffffffffffffffffffffffffffffffffffff169050816000806101000a81548173ffffffffffffffffffffffffffffffffffffffff021916908373ffffffffffffffffffffffffffffffffffffffff1602179055508173ffffffffffffffffffffffffffffffffffffffff168173ffffffffffffffffffffffffffffffffffffffff167f8be0079c531659141344cd1fd0a4f28419497f9722a3daafe3b4186f6b6457e060405160405180910390a35050565b6200032673c89bd4e1632d3a43cb03aaad5262cbe4038bc57173ffffffffffffffffffffffffffffffffffffffff166338cc48316040518163ffffffff1660e01b815260040160206040518083038186803b158015620002df57600080fd5b505afa158015620002f4573d6000803e3d6000fd5b505050506040513d601f19601f820116820180604052508101906200031a9190620003c7565b6200036c60201b60201c565b565b80600560006101000a81548173ffffffffffffffffffffffffffffffffffffffff021916908373ffffffffffffffffffffffffffffffffffffffff16021790555050565b80600460006101000a81548173ffffffffffffffffffffffffffffffffffffffff021916908373ffffffffffffffffffffffffffffffffffffffff16021790555050565b600081519050620003c18162000432565b92915050565b600060208284031215620003e057620003df6200042d565b5b6000620003f084828501620003b0565b91505092915050565b600062000406826200040d565b9050919050565b600073ffffffffffffffffffffffffffffffffffffffff82169050919050565b600080fd5b6200043d81620003f9565b81146200044957600080fd5b50565b613ac0806200045c6000396000f3fe60806040526004361061012a5760003560e01c80638456cb59116100ab578063b66320fa1161006f578063b66320fa14610397578063eeecb47f146103c0578063f2fde38b146103fd578063f333321414610426578063fb38596b1461044f578063fd68990a1461048c5761012a565b80638456cb59146102f75780638da5cb5b1461030e5780638dc654a2146103395780638e15f47314610350578063abd972191461037b5761012a565b80635c975abb116100f25780635c975abb146102265780636602231d146102515780636acb0d601461027a578063715018a6146102b75780637adbf973146102ce5761012a565b806307b4b7531461012f5780631d86d2d71461016c5780633f4ba83a146101a9578063449c9e37146101c057806352492815146101fd575b600080fd5b34801561013b57600080fd5b50610156600480360381019061015191906128ed565b6104b5565b6040516101639190613005565b60405180910390f35b34801561017857600080fd5b50610193600480360381019061018e91906128ed565b610555565b6040516101a09190613147565b60405180910390f35b3480156101b557600080fd5b506101be61056d565b005b3480156101cc57600080fd5b506101e760048036038101906101e291906128ed565b610648565b6040516101f49190613005565b60405180910390f35b34801561020957600080fd5b50610224600480360381019061021f9190612a8a565b6106e8565b005b34801561023257600080fd5b5061023b6107a5565b6040516102489190612fcf565b60405180910390f35b34801561025d57600080fd5b5061027860048036038101906102739190612a8a565b6107bc565b005b34801561028657600080fd5b506102a1600480360381019061029c919061295a565b610842565b6040516102ae9190612ec8565b60405180910390f35b3480156102c357600080fd5b506102cc61088b565b005b3480156102da57600080fd5b506102f560048036038101906102f09190612893565b610913565b005b34801561030357600080fd5b5061030c6109d3565b005b34801561031a57600080fd5b50610323610aae565b6040516103309190612ead565b60405180910390f35b34801561034557600080fd5b5061034e610ad7565b005b34801561035c57600080fd5b50610365610cb6565b6040516103729190612fea565b60405180910390f35b610395600480360381019061039091906129ff565b610d66565b005b3480156103a357600080fd5b506103be60048036038101906103b991906129a3565b610fca565b005b3480156103cc57600080fd5b506103e760048036038101906103e2919061295a565b6111d2565b6040516103f49190612ec8565b60405180910390f35b34801561040957600080fd5b50610424600480360381019061041f9190612893565b61121b565b005b34801561043257600080fd5b5061044d6004803603810190610448919061291a565b611313565b005b34801561045b57600080fd5b50610476600480360381019061047191906128ed565b611521565b6040516104839190613005565b60405180910390f35b34801561049857600080fd5b506104b360048036038101906104ae919061291a565b6115c1565b005b600f60205280600052604060002060009150905080546104d4906135e8565b80601f0160208091040260200160405190810160405280929190818152602001828054610500906135e8565b801561054d5780601f106105225761010080835404028352916020019161054d565b820191906000526020600020905b81548152906001019060200180831161053057829003601f168201915b505050505081565b60106020528060005260406000206000915090505481565b600260015414156105b3576040517f08c379a00000000000000000000000000000000000000000000000000000000081526004016105aa90613127565b60405180910390fd5b60026001819055506105c3611832565b73ffffffffffffffffffffffffffffffffffffffff166105e1610aae565b73ffffffffffffffffffffffffffffffffffffffff1614610637576040517f08c379a000000000000000000000000000000000000000000000000000000000815260040161062e906130e7565b60405180910390fd5b61063f61183a565b60018081905550565b60126020528060005260406000206000915090508054610667906135e8565b80601f0160208091040260200160405190810160405280929190818152602001828054610693906135e8565b80156106e05780601f106106b5576101008083540402835291602001916106e0565b820191906000526020600020905b8154815290600101906020018083116106c357829003601f168201915b505050505081565b6106f0611832565b73ffffffffffffffffffffffffffffffffffffffff1661070e610aae565b73ffffffffffffffffffffffffffffffffffffffff1614610764576040517f08c379a000000000000000000000000000000000000000000000000000000000815260040161075b906130e7565b60405180910390fd5b80600a819055507fe854185167cff7d85f6ce2ae7d2940249c4a78ae54e270a5f7dddf8e5d7cc4588160405161079a9190613147565b60405180910390a150565b6000600260009054906101000a900460ff16905090565b6107c4611832565b73ffffffffffffffffffffffffffffffffffffffff166107e2610aae565b73ffffffffffffffffffffffffffffffffffffffff1614610838576040517f08c379a000000000000000000000000000000000000000000000000000000000815260040161082f906130e7565b60405180910390fd5b80600b8190555050565b600d818051602081018201805184825260208301602085012081835280955050505050506000915054906101000a900473ffffffffffffffffffffffffffffffffffffffff1681565b610893611832565b73ffffffffffffffffffffffffffffffffffffffff166108b1610aae565b73ffffffffffffffffffffffffffffffffffffffff1614610907576040517f08c379a00000000000000000000000000000000000000000000000000000000081526004016108fe906130e7565b60405180910390fd5b61091160006118dc565b565b61091b611832565b73ffffffffffffffffffffffffffffffffffffffff16610939610aae565b73ffffffffffffffffffffffffffffffffffffffff161461098f576040517f08c379a0000000000000000000000000000000000000000000000000000000008152600401610986906130e7565b60405180910390fd5b80600960006101000a81548173ffffffffffffffffffffffffffffffffffffffff021916908373ffffffffffffffffffffffffffffffffffffffff16021790555050565b60026001541415610a19576040517f08c379a0000000000000000000000000000000000000000000000000000000008152600401610a1090613127565b60405180910390fd5b6002600181905550610a29611832565b73ffffffffffffffffffffffffffffffffffffffff16610a47610aae565b73ffffffffffffffffffffffffffffffffffffffff1614610a9d576040517f08c379a0000000000000000000000000000000000000000000000000000000008152600401610a94906130e7565b60405180910390fd5b610aa56119a0565b60018081905550565b60008060009054906101000a900473ffffffffffffffffffffffffffffffffffffffff16905090565b610adf611832565b73ffffffffffffffffffffffffffffffffffffffff16610afd610aae565b73ffffffffffffffffffffffffffffffffffffffff1614610b53576040517f08c379a0000000000000000000000000000000000000000000000000000000008152600401610b4a906130e7565b60405180910390fd5b6000610b5d611a43565b90508073ffffffffffffffffffffffffffffffffffffffff1663a9059cbb338373ffffffffffffffffffffffffffffffffffffffff166370a08231306040518263ffffffff1660e01b8152600401610bb59190612ead565b60206040518083038186803b158015610bcd57600080fd5b505afa158015610be1573d6000803e3d6000fd5b505050506040513d601f19601f82011682018060405250810190610c059190612ab7565b6040518363ffffffff1660e01b8152600401610c22929190612ee3565b602060405180830381600087803b158015610c3c57600080fd5b505af1158015610c50573d6000803e3d6000fd5b505050506040513d601f19601f82011682018060405250810190610c7491906128c0565b610cb3576040517f08c379a0000000000000000000000000000000000000000000000000000000008152600401610caa906130c7565b60405180910390fd5b50565b600080600860009054906101000a900473ffffffffffffffffffffffffffffffffffffffff1673ffffffffffffffffffffffffffffffffffffffff1663feaf968c6040518163ffffffff1660e01b815260040160a06040518083038186803b158015610d2157600080fd5b505afa158015610d35573d6000803e3d6000fd5b505050506040513d601f19601f82011682018060405250810190610d599190612ae4565b5050509150508091505090565b610d6e6107a5565b15610dae576040517f08c379a0000000000000000000000000000000000000000000000000000000008152600401610da5906130a7565b60405180910390fd5b60007f303064646235613030333634343135376138396437323964613139636138336490506000610de7823063fd68990a60e01b611a6d565b9050610e336040518060400160405280600881526020017f757365726e616d650000000000000000000000000000000000000000000000008152508683611a9e9092919063ffffffff16565b610e856040518060400160405280600781526020017f6f72646572496400000000000000000000000000000000000000000000000000815250610e7585611ad1565b83611a9e9092919063ffffffff16565b610ede6040518060400160405280600981526020017f7072696365446174610000000000000000000000000000000000000000000000815250610ece610ec9610cb6565b611ad1565b83611a9e9092919063ffffffff16565b610f306040518060400160405280600581526020017f76616c7565000000000000000000000000000000000000000000000000000000815250610f2034611ad1565b83611a9e9092919063ffffffff16565b6000610f3e82600a54611c32565b9050612710600b5434610f519190613408565b610f5b9190613266565b601060008381526020019081526020016000208190555085601160008381526020019081526020016000209080519060200190610f99929190612651565b5084601260008381526020019081526020016000209080519060200190610fc1929190612651565b50505050505050565b610fd26107a5565b15611012576040517f08c379a0000000000000000000000000000000000000000000000000000000008152600401611009906130a7565b60405180910390fd5b60007f313133633031616163663539343964386262353464383462353430323962306490503373ffffffffffffffffffffffffffffffffffffffff168273ffffffffffffffffffffffffffffffffffffffff1614156111cd5781600d8460405161107c9190612e7f565b908152602001604051809103902060006101000a81548173ffffffffffffffffffffffffffffffffffffffff021916908373ffffffffffffffffffffffffffffffffffffffff16021790555060006110dc823063f333321460e01b611a6d565b90506111286040518060400160405280600881526020017f757365726e616d650000000000000000000000000000000000000000000000008152508583611a9e9092919063ffffffff16565b6111926040518060400160405280600781526020017f61646472657373000000000000000000000000000000000000000000000000008152506111823373ffffffffffffffffffffffffffffffffffffffff166014611c69565b83611a9e9092919063ffffffff16565b60006111a082600a54611c32565b905084600f600083815260200190815260200160002090805190602001906111c9929190612651565b5050505b505050565b600e818051602081018201805184825260208301602085012081835280955050505050506000915054906101000a900473ffffffffffffffffffffffffffffffffffffffff1681565b611223611832565b73ffffffffffffffffffffffffffffffffffffffff16611241610aae565b73ffffffffffffffffffffffffffffffffffffffff1614611297576040517f08c379a000000000000000000000000000000000000000000000000000000000815260040161128e906130e7565b60405180910390fd5b600073ffffffffffffffffffffffffffffffffffffffff168173ffffffffffffffffffffffffffffffffffffffff161415611307576040517f08c379a00000000000000000000000000000000000000000000000000000000081526004016112fe90613067565b60405180910390fd5b611310816118dc565b50565b816007600082815260200190815260200160002060009054906101000a900473ffffffffffffffffffffffffffffffffffffffff1673ffffffffffffffffffffffffffffffffffffffff163373ffffffffffffffffffffffffffffffffffffffff16146113b5576040517f08c379a00000000000000000000000000000000000000000000000000000000081526004016113ac90613107565b60405180910390fd5b6007600082815260200190815260200160002060006101000a81549073ffffffffffffffffffffffffffffffffffffffff0219169055807f7cc135e0cebb02c3480ae5d74d377283180a2601f8f644edf7987b009316c63a60405160405180910390a26001151582151514156114e557600d600f60008581526020019081526020016000206040516114479190612e96565b908152602001604051809103902060009054906101000a900473ffffffffffffffffffffffffffffffffffffffff16600e600f60008681526020019081526020016000206040516114989190612e96565b908152602001604051809103902060006101000a81548173ffffffffffffffffffffffffffffffffffffffff021916908373ffffffffffffffffffffffffffffffffffffffff1602179055505b7f6b91a47b52a42ff1e60f8ac5eb46b0b5b2b6514b2b3e2400d5822f14ac44dbe5826040516115149190612fcf565b60405180910390a1505050565b60116020528060005260406000206000915090508054611540906135e8565b80601f016020809104026020016040519081016040528092919081815260200182805461156c906135e8565b80156115b95780601f1061158e576101008083540402835291602001916115b9565b820191906000526020600020905b81548152906001019060200180831161159c57829003601f168201915b505050505081565b816007600082815260200190815260200160002060009054906101000a900473ffffffffffffffffffffffffffffffffffffffff1673ffffffffffffffffffffffffffffffffffffffff163373ffffffffffffffffffffffffffffffffffffffff1614611663576040517f08c379a000000000000000000000000000000000000000000000000000000000815260040161165a90613107565b60405180910390fd5b6007600082815260200190815260200160002060006101000a81549073ffffffffffffffffffffffffffffffffffffffff0219169055807f7cc135e0cebb02c3480ae5d74d377283180a2601f8f644edf7987b009316c63a60405160405180910390a260011515821515141561178257600e601260008581526020019081526020016000206040516116f59190612e96565b908152602001604051809103902060009054906101000a900473ffffffffffffffffffffffffffffffffffffffff1673ffffffffffffffffffffffffffffffffffffffff166108fc60106000868152602001908152602001600020549081150290604051600060405180830381858888f1935050505015801561177c573d6000803e3d6000fd5b5061182d565b600e601160008581526020019081526020016000206040516117a49190612e96565b908152602001604051809103902060009054906101000a900473ffffffffffffffffffffffffffffffffffffffff1673ffffffffffffffffffffffffffffffffffffffff166108fc60106000868152602001908152602001600020549081150290604051600060405180830381858888f1935050505015801561182b573d6000803e3d6000fd5b505b505050565b600033905090565b6118426107a5565b611881576040517f08c379a000000000000000000000000000000000000000000000000000000000815260040161187890613047565b60405180910390fd5b6000600260006101000a81548160ff0219169083151502179055507f5db9ee0a495bf2e6ff9c91a7834c1ba4fdd244a5e8aa4e537bd38aeae4b073aa6118c5611832565b6040516118d29190612ead565b60405180910390a1565b60008060009054906101000a900473ffffffffffffffffffffffffffffffffffffffff169050816000806101000a81548173ffffffffffffffffffffffffffffffffffffffff021916908373ffffffffffffffffffffffffffffffffffffffff1602179055508173ffffffffffffffffffffffffffffffffffffffff168173ffffffffffffffffffffffffffffffffffffffff167f8be0079c531659141344cd1fd0a4f28419497f9722a3daafe3b4186f6b6457e060405160405180910390a35050565b6119a86107a5565b156119e8576040517f08c379a00000000000000000000000000000000000000000000000000000000081526004016119df906130a7565b60405180910390fd5b6001600260006101000a81548160ff0219169083151502179055507f62e78cea01bee320cd4e420270b5ea74000d11b0c9f74754ebdbfc544b05a258611a2c611832565b604051611a399190612ead565b60405180910390a1565b6000600460009054906101000a900473ffffffffffffffffffffffffffffffffffffffff16905090565b611a756126d7565b611a7d6126d7565b611a9485858584611ea5909392919063ffffffff16565b9150509392505050565b611ab5828460800151611f5590919063ffffffff16565b611acc818460800151611f5590919063ffffffff16565b505050565b60606000821415611b19576040518060400160405280600181526020017f30000000000000000000000000000000000000000000000000000000000000008152509050611c2d565b600082905060005b60008214611b4b578080611b349061364b565b915050600a82611b449190613266565b9150611b21565b60008167ffffffffffffffff811115611b6757611b666137af565b5b6040519080825280601f01601f191660200182016040528015611b995781602001600182028036833780820191505090505b5090505b60008514611c2657600182611bb29190613462565b9150600a85611bc191906136c2565b6030611bcd9190613210565b60f81b818381518110611be357611be2613780565b5b60200101907effffffffffffffffffffffffffffffffffffffffffffffffffffffffffffff1916908160001a905350600a85611c1f9190613266565b9450611b9d565b8093505050505b919050565b6000611c61600560009054906101000a900473ffffffffffffffffffffffffffffffffffffffff168484611f7a565b905092915050565b606060006002836002611c7c9190613408565b611c869190613210565b67ffffffffffffffff811115611c9f57611c9e6137af565b5b6040519080825280601f01601f191660200182016040528015611cd15781602001600182028036833780820191505090505b5090507f300000000000000000000000000000000000000000000000000000000000000081600081518110611d0957611d08613780565b5b60200101907effffffffffffffffffffffffffffffffffffffffffffffffffffffffffffff1916908160001a9053507f780000000000000000000000000000000000000000000000000000000000000081600181518110611d6d57611d6c613780565b5b60200101907effffffffffffffffffffffffffffffffffffffffffffffffffffffffffffff1916908160001a90535060006001846002611dad9190613408565b611db79190613210565b90505b6001811115611e57577f3031323334353637383961626364656600000000000000000000000000000000600f861660108110611df957611df8613780565b5b1a60f81b828281518110611e1057611e0f613780565b5b60200101907effffffffffffffffffffffffffffffffffffffffffffffffffffffffffffff1916908160001a905350600485901c945080611e50906135be565b9050611dba565b5060008414611e9b576040517f08c379a0000000000000000000000000000000000000000000000000000000008152600401611e9290613027565b60405180910390fd5b8091505092915050565b611ead6126d7565b611ebd8560800151610100612046565b508385600001818152505082856020019073ffffffffffffffffffffffffffffffffffffffff16908173ffffffffffffffffffffffffffffffffffffffff16815250508185604001907bffffffffffffffffffffffffffffffffffffffffffffffffffffffff191690817bffffffffffffffffffffffffffffffffffffffffffffffffffffffff191681525050849050949350505050565b611f6282600383516120b0565b611f75818361223590919063ffffffff16565b505050565b6000806006549050600181611f8f9190613210565b6006819055506000634042994660e01b60008087600001513089604001518760018c6080015160000151604051602401611fd0989796959493929190612f0c565b604051602081830303815290604052907bffffffffffffffffffffffffffffffffffffffffffffffffffffffff19166020820180517bffffffffffffffffffffffffffffffffffffffffffffffffffffffff8381831617835250505050905061203b86838684612257565b925050509392505050565b61204e612744565b600060208361205d91906136c2565b146120895760208261206f91906136c2565b602061207b9190613462565b826120869190613210565b91505b81836020018181525050604051808452600081528281016020016040525082905092915050565b60178167ffffffffffffffff16116120e7576120e18160058460ff16901b60ff1617846123fb90919063ffffffff16565b50612230565b60ff8167ffffffffffffffff161161213d57612116601860058460ff16901b17846123fb90919063ffffffff16565b506121378167ffffffffffffffff1660018561241b9092919063ffffffff16565b5061222f565b61ffff8167ffffffffffffffff16116121945761216d601960058460ff16901b17846123fb90919063ffffffff16565b5061218e8167ffffffffffffffff1660028561241b9092919063ffffffff16565b5061222e565b63ffffffff8167ffffffffffffffff16116121ed576121c6601a60058460ff16901b17846123fb90919063ffffffff16565b506121e78167ffffffffffffffff1660048561241b9092919063ffffffff16565b5061222d565b61220a601b60058460ff16901b17846123fb90919063ffffffff16565b5061222b8167ffffffffffffffff1660088561241b9092919063ffffffff16565b505b5b5b5b505050565b61223d612744565b61224f8384600001515184855161243d565b905092915050565b6000308460405160200161226c929190612e53565b604051602081830303815290604052805190602001209050846007600083815260200190815260200160002060006101000a81548173ffffffffffffffffffffffffffffffffffffffff021916908373ffffffffffffffffffffffffffffffffffffffff160217905550807fb5e6e01e79f91267dc17b4e6314d5d4d03593d2ceee0fbb452b750bd70ea5af960405160405180910390a2600460009054906101000a900473ffffffffffffffffffffffffffffffffffffffff1673ffffffffffffffffffffffffffffffffffffffff16634000aea08685856040518463ffffffff1660e01b815260040161236293929190612f91565b602060405180830381600087803b15801561237c57600080fd5b505af1158015612390573d6000803e3d6000fd5b505050506040513d601f19601f820116820180604052508101906123b491906128c0565b6123f3576040517f08c379a00000000000000000000000000000000000000000000000000000000081526004016123ea90613087565b60405180910390fd5b949350505050565b612403612744565b612413838460000151518461252c565b905092915050565b612423612744565b612434848560000151518585612583565b90509392505050565b612445612744565b825182111561245357600080fd5b846020015182856124649190613210565b111561249957612498856002612489886020015188876124849190613210565b612611565b6124939190613408565b61262d565b5b6000808651805187602083010193508088870111156124b85787860182525b60208701925050505b602084106124ff57805182526020826124da9190613210565b91506020816124e99190613210565b90506020846124f89190613462565b93506124c1565b60006001856020036101000a03905080198251168184511681811785525050508692505050949350505050565b612534612744565b8360200151831061255a5761255984600286602001516125549190613408565b61262d565b5b8351805160208583010184815381861415612576576001820183525b5050508390509392505050565b61258b612744565b8460200151848361259c9190613210565b11156125c4576125c385600286856125b49190613210565b6125be9190613408565b61262d565b5b60006001836101006125d691906132ea565b6125e09190613462565b905085518386820101858319825116178152815185880111156126035784870182525b505085915050949350505050565b60008183111561262357829050612627565b8190505b92915050565b6000826000015190506126408383612046565b5061264b8382612235565b50505050565b82805461265d906135e8565b90600052602060002090601f01602090048101928261267f57600085556126c6565b82601f1061269857805160ff19168380011785556126c6565b828001600101855582156126c6579182015b828111156126c55782518255916020019190600101906126aa565b5b5090506126d3919061275e565b5090565b6040518060a0016040528060008019168152602001600073ffffffffffffffffffffffffffffffffffffffff16815260200160007bffffffffffffffffffffffffffffffffffffffffffffffffffffffff191681526020016000815260200161273e612744565b81525090565b604051806040016040528060608152602001600081525090565b5b8082111561277757600081600090555060010161275f565b5090565b600061278e61278984613187565b613162565b9050828152602081018484840111156127aa576127a96137e3565b5b6127b584828561357c565b509392505050565b6000813590506127cc81613a00565b92915050565b6000813590506127e181613a17565b92915050565b6000815190506127f681613a17565b92915050565b60008135905061280b81613a2e565b92915050565b60008151905061282081613a45565b92915050565b600082601f83011261283b5761283a6137de565b5b813561284b84826020860161277b565b91505092915050565b60008135905061286381613a5c565b92915050565b60008151905061287881613a5c565b92915050565b60008151905061288d81613a73565b92915050565b6000602082840312156128a9576128a86137ed565b5b60006128b7848285016127bd565b91505092915050565b6000602082840312156128d6576128d56137ed565b5b60006128e4848285016127e7565b91505092915050565b600060208284031215612903576129026137ed565b5b6000612911848285016127fc565b91505092915050565b60008060408385031215612931576129306137ed565b5b600061293f858286016127fc565b9250506020612950858286016127d2565b9150509250929050565b6000602082840312156129705761296f6137ed565b5b600082013567ffffffffffffffff81111561298e5761298d6137e8565b5b61299a84828501612826565b91505092915050565b600080604083850312156129ba576129b96137ed565b5b600083013567ffffffffffffffff8111156129d8576129d76137e8565b5b6129e485828601612826565b92505060206129f5858286016127bd565b9150509250929050565b600080600060608486031215612a1857612a176137ed565b5b600084013567ffffffffffffffff811115612a3657612a356137e8565b5b612a4286828701612826565b935050602084013567ffffffffffffffff811115612a6357612a626137e8565b5b612a6f86828701612826565b9250506040612a8086828701612854565b9150509250925092565b600060208284031215612aa057612a9f6137ed565b5b6000612aae84828501612854565b91505092915050565b600060208284031215612acd57612acc6137ed565b5b6000612adb84828501612869565b91505092915050565b600080600080600060a08688031215612b0057612aff6137ed565b5b6000612b0e8882890161287e565b9550506020612b1f88828901612811565b9450506040612b3088828901612869565b9350506060612b4188828901612869565b9250506080612b528882890161287e565b9150509295509295909350565b612b68816134a8565b82525050565b612b7781613496565b82525050565b612b86816134ba565b82525050565b612b95816134c6565b82525050565b612ba4816134d0565b82525050565b6000612bb5826131cd565b612bbf81856131e3565b9350612bcf81856020860161358b565b612bd8816137f2565b840191505092915050565b612bf4612bef82613546565b613694565b82525050565b612c03816134fc565b82525050565b6000612c14826131d8565b612c1e81856131f4565b9350612c2e81856020860161358b565b612c37816137f2565b840191505092915050565b6000612c4d826131d8565b612c578185613205565b9350612c6781856020860161358b565b80840191505092915050565b60008154612c80816135e8565b612c8a8186613205565b94506001821660008114612ca55760018114612cb657612ce9565b60ff19831686528186019350612ce9565b612cbf856131b8565b60005b83811015612ce157815481890152600182019150602081019050612cc2565b838801955050505b50505092915050565b6000612cff6020836131f4565b9150612d0a8261381d565b602082019050919050565b6000612d226014836131f4565b9150612d2d82613846565b602082019050919050565b6000612d456026836131f4565b9150612d508261386f565b604082019050919050565b6000612d686023836131f4565b9150612d73826138be565b604082019050919050565b6000612d8b6010836131f4565b9150612d968261390d565b602082019050919050565b6000612dae6012836131f4565b9150612db982613936565b602082019050919050565b6000612dd16020836131f4565b9150612ddc8261395f565b602082019050919050565b6000612df46028836131f4565b9150612dff82613988565b604082019050919050565b6000612e17601f836131f4565b9150612e22826139d7565b602082019050919050565b612e3681613526565b82525050565b612e4d612e4882613526565b6136b8565b82525050565b6000612e5f8285612be3565b601482019150612e6f8284612e3c565b6020820191508190509392505050565b6000612e8b8284612c42565b915081905092915050565b6000612ea28284612c73565b915081905092915050565b6000602082019050612ec26000830184612b6e565b92915050565b6000602082019050612edd6000830184612b5f565b92915050565b6000604082019050612ef86000830185612b6e565b612f056020830184612e2d565b9392505050565b600061010082019050612f22600083018b612b6e565b612f2f602083018a612e2d565b612f3c6040830189612b8c565b612f496060830188612b6e565b612f566080830187612b9b565b612f6360a0830186612e2d565b612f7060c0830185612e2d565b81810360e0830152612f828184612baa565b90509998505050505050505050565b6000606082019050612fa66000830186612b6e565b612fb36020830185612e2d565b8181036040830152612fc58184612baa565b9050949350505050565b6000602082019050612fe46000830184612b7d565b92915050565b6000602082019050612fff6000830184612bfa565b92915050565b6000602082019050818103600083015261301f8184612c09565b905092915050565b6000602082019050818103600083015261304081612cf2565b9050919050565b6000602082019050818103600083015261306081612d15565b9050919050565b6000602082019050818103600083015261308081612d38565b9050919050565b600060208201905081810360008301526130a081612d5b565b9050919050565b600060208201905081810360008301526130c081612d7e565b9050919050565b600060208201905081810360008301526130e081612da1565b9050919050565b6000602082019050818103600083015261310081612dc4565b9050919050565b6000602082019050818103600083015261312081612de7565b9050919050565b6000602082019050818103600083015261314081612e0a565b9050919050565b600060208201905061315c6000830184612e2d565b92915050565b600061316c61317d565b9050613178828261361a565b919050565b6000604051905090565b600067ffffffffffffffff8211156131a2576131a16137af565b5b6131ab826137f2565b9050602081019050919050565b60008190508160005260206000209050919050565b600081519050919050565b600081519050919050565b600082825260208201905092915050565b600082825260208201905092915050565b600081905092915050565b600061321b82613526565b915061322683613526565b9250827fffffffffffffffffffffffffffffffffffffffffffffffffffffffffffffffff0382111561325b5761325a6136f3565b5b828201905092915050565b600061327182613526565b915061327c83613526565b92508261328c5761328b613722565b5b828204905092915050565b6000808291508390505b60018511156132e1578086048111156132bd576132bc6136f3565b5b60018516156132cc5780820291505b80810290506132da85613810565b94506132a1565b94509492505050565b60006132f582613526565b915061330083613526565b925061332d7fffffffffffffffffffffffffffffffffffffffffffffffffffffffffffffffff8484613335565b905092915050565b6000826133455760019050613401565b816133535760009050613401565b81600181146133695760028114613373576133a2565b6001915050613401565b60ff841115613385576133846136f3565b5b8360020a91508482111561339c5761339b6136f3565b5b50613401565b5060208310610133831016604e8410600b84101617156133d75782820a9050838111156133d2576133d16136f3565b5b613401565b6133e48484846001613297565b925090508184048111156133fb576133fa6136f3565b5b81810290505b9392505050565b600061341382613526565b915061341e83613526565b9250817fffffffffffffffffffffffffffffffffffffffffffffffffffffffffffffffff0483118215151615613457576134566136f3565b5b828202905092915050565b600061346d82613526565b915061347883613526565b92508282101561348b5761348a6136f3565b5b828203905092915050565b60006134a182613506565b9050919050565b60006134b382613506565b9050919050565b60008115159050919050565b6000819050919050565b60007fffffffff0000000000000000000000000000000000000000000000000000000082169050919050565b6000819050919050565b600073ffffffffffffffffffffffffffffffffffffffff82169050919050565b6000819050919050565b600069ffffffffffffffffffff82169050919050565b600061355182613558565b9050919050565b60006135638261356a565b9050919050565b600061357582613506565b9050919050565b82818337600083830152505050565b60005b838110156135a957808201518184015260208101905061358e565b838111156135b8576000848401525b50505050565b60006135c982613526565b915060008214156135dd576135dc6136f3565b5b600182039050919050565b6000600282049050600182168061360057607f821691505b6020821081141561361457613613613751565b5b50919050565b613623826137f2565b810181811067ffffffffffffffff82111715613642576136416137af565b5b80604052505050565b600061365682613526565b91507fffffffffffffffffffffffffffffffffffffffffffffffffffffffffffffffff821415613689576136886136f3565b5b600182019050919050565b600061369f826136a6565b9050919050565b60006136b182613803565b9050919050565b6000819050919050565b60006136cd82613526565b91506136d883613526565b9250826136e8576136e7613722565b5b828206905092915050565b7f4e487b7100000000000000000000000000000000000000000000000000000000600052601160045260246000fd5b7f4e487b7100000000000000000000000000000000000000000000000000000000600052601260045260246000fd5b7f4e487b7100000000000000000000000000000000000000000000000000000000600052602260045260246000fd5b7f4e487b7100000000000000000000000000000000000000000000000000000000600052603260045260246000fd5b7f4e487b7100000000000000000000000000000000000000000000000000000000600052604160045260246000fd5b600080fd5b600080fd5b600080fd5b600080fd5b6000601f19601f8301169050919050565b60008160601b9050919050565b60008160011c9050919050565b7f537472696e67733a20686578206c656e67746820696e73756666696369656e74600082015250565b7f5061757361626c653a206e6f7420706175736564000000000000000000000000600082015250565b7f4f776e61626c653a206e6577206f776e657220697320746865207a65726f206160008201527f6464726573730000000000000000000000000000000000000000000000000000602082015250565b7f756e61626c6520746f207472616e73666572416e6443616c6c20746f206f726160008201527f636c650000000000000000000000000000000000000000000000000000000000602082015250565b7f5061757361626c653a2070617573656400000000000000000000000000000000600082015250565b7f556e61626c6520746f207472616e736665720000000000000000000000000000600082015250565b7f4f776e61626c653a2063616c6c6572206973206e6f7420746865206f776e6572600082015250565b7f536f75726365206d75737420626520746865206f7261636c65206f662074686560008201527f2072657175657374000000000000000000000000000000000000000000000000602082015250565b7f5265656e7472616e637947756172643a207265656e7472616e742063616c6c00600082015250565b613a0981613496565b8114613a1457600080fd5b50565b613a20816134ba565b8114613a2b57600080fd5b50565b613a37816134c6565b8114613a4257600080fd5b50565b613a4e816134fc565b8114613a5957600080fd5b50565b613a6581613526565b8114613a7057600080fd5b50565b613a7c81613530565b8114613a8757600080fd5b5056fea26469706673582212202a262bd711e3751e36e7ec59c41866c4acd3af3bb5f7941c3b5327ba7d24d55164736f6c63430008070033",
			"opcodes": "PUSH1 0x80 PUSH1 0x40 MSTORE PUSH1 0x1 PUSH1 0x6 SSTORE CALLVALUE DUP1 ISZERO PUSH3 0x16 JUMPI PUSH1 0x0 DUP1 REVERT JUMPDEST POP PUSH3 0x37 PUSH3 0x2B PUSH3 0x1B4 PUSH1 0x20 SHL PUSH1 0x20 SHR JUMP JUMPDEST PUSH3 0x1BC PUSH1 0x20 SHL PUSH1 0x20 SHR JUMP JUMPDEST PUSH1 0x1 DUP1 DUP2 SWAP1 SSTORE POP PUSH1 0x0 PUSH1 0x2 PUSH1 0x0 PUSH2 0x100 EXP DUP2 SLOAD DUP2 PUSH1 0xFF MUL NOT AND SWAP1 DUP4 ISZERO ISZERO MUL OR SWAP1 SSTORE POP PUSH3 0x69 PUSH3 0x280 PUSH1 0x20 SHL PUSH1 0x20 SHR JUMP JUMPDEST PUSH20 0x5C0928F481E9993F33DC0AF0F1372D08A3A3873 PUSH1 0x9 PUSH1 0x0 PUSH2 0x100 EXP DUP2 SLOAD DUP2 PUSH20 0xFFFFFFFFFFFFFFFFFFFFFFFFFFFFFFFFFFFFFFFF MUL NOT AND SWAP1 DUP4 PUSH20 0xFFFFFFFFFFFFFFFFFFFFFFFFFFFFFFFFFFFFFFFF AND MUL OR SWAP1 SSTORE POP PUSH20 0x5C0928F481E9993F33DC0AF0F1372D08A3A3873 PUSH1 0xC PUSH1 0x0 PUSH2 0x100 EXP DUP2 SLOAD DUP2 PUSH20 0xFFFFFFFFFFFFFFFFFFFFFFFFFFFFFFFFFFFFFFFF MUL NOT AND SWAP1 DUP4 PUSH20 0xFFFFFFFFFFFFFFFFFFFFFFFFFFFFFFFFFFFFFFFF AND MUL OR SWAP1 SSTORE POP PUSH3 0x146 PUSH1 0x9 PUSH1 0x0 SWAP1 SLOAD SWAP1 PUSH2 0x100 EXP SWAP1 DIV PUSH20 0xFFFFFFFFFFFFFFFFFFFFFFFFFFFFFFFFFFFFFFFF AND PUSH3 0x328 PUSH1 0x20 SHL PUSH1 0x20 SHR JUMP JUMPDEST PUSH20 0x9326BFA02ADD2366B30BACB125260AF641031331 PUSH1 0x8 PUSH1 0x0 PUSH2 0x100 EXP DUP2 SLOAD DUP2 PUSH20 0xFFFFFFFFFFFFFFFFFFFFFFFFFFFFFFFFFFFFFFFF MUL NOT AND SWAP1 DUP4 PUSH20 0xFFFFFFFFFFFFFFFFFFFFFFFFFFFFFFFFFFFFFFFF AND MUL OR SWAP1 SSTORE POP PUSH2 0x270B PUSH1 0xB DUP2 SWAP1 SSTORE POP PUSH3 0x186A0 PUSH1 0xA DUP2 SWAP1 SSTORE POP PUSH3 0x44C JUMP JUMPDEST PUSH1 0x0 CALLER SWAP1 POP SWAP1 JUMP JUMPDEST PUSH1 0x0 DUP1 PUSH1 0x0 SWAP1 SLOAD SWAP1 PUSH2 0x100 EXP SWAP1 DIV PUSH20 0xFFFFFFFFFFFFFFFFFFFFFFFFFFFFFFFFFFFFFFFF AND SWAP1 POP DUP2 PUSH1 0x0 DUP1 PUSH2 0x100 EXP DUP2 SLOAD DUP2 PUSH20 0xFFFFFFFFFFFFFFFFFFFFFFFFFFFFFFFFFFFFFFFF MUL NOT AND SWAP1 DUP4 PUSH20 0xFFFFFFFFFFFFFFFFFFFFFFFFFFFFFFFFFFFFFFFF AND MUL OR SWAP1 SSTORE POP DUP2 PUSH20 0xFFFFFFFFFFFFFFFFFFFFFFFFFFFFFFFFFFFFFFFF AND DUP2 PUSH20 0xFFFFFFFFFFFFFFFFFFFFFFFFFFFFFFFFFFFFFFFF AND PUSH32 0x8BE0079C531659141344CD1FD0A4F28419497F9722A3DAAFE3B4186F6B6457E0 PUSH1 0x40 MLOAD PUSH1 0x40 MLOAD DUP1 SWAP2 SUB SWAP1 LOG3 POP POP JUMP JUMPDEST PUSH3 0x326 PUSH20 0xC89BD4E1632D3A43CB03AAAD5262CBE4038BC571 PUSH20 0xFFFFFFFFFFFFFFFFFFFFFFFFFFFFFFFFFFFFFFFF AND PUSH4 0x38CC4831 PUSH1 0x40 MLOAD DUP2 PUSH4 0xFFFFFFFF AND PUSH1 0xE0 SHL DUP2 MSTORE PUSH1 0x4 ADD PUSH1 0x20 PUSH1 0x40 MLOAD DUP1 DUP4 SUB DUP2 DUP7 DUP1 EXTCODESIZE ISZERO DUP1 ISZERO PUSH3 0x2DF JUMPI PUSH1 0x0 DUP1 REVERT JUMPDEST POP GAS STATICCALL ISZERO DUP1 ISZERO PUSH3 0x2F4 JUMPI RETURNDATASIZE PUSH1 0x0 DUP1 RETURNDATACOPY RETURNDATASIZE PUSH1 0x0 REVERT JUMPDEST POP POP POP POP PUSH1 0x40 MLOAD RETURNDATASIZE PUSH1 0x1F NOT PUSH1 0x1F DUP3 ADD AND DUP3 ADD DUP1 PUSH1 0x40 MSTORE POP DUP2 ADD SWAP1 PUSH3 0x31A SWAP2 SWAP1 PUSH3 0x3C7 JUMP JUMPDEST PUSH3 0x36C PUSH1 0x20 SHL PUSH1 0x20 SHR JUMP JUMPDEST JUMP JUMPDEST DUP1 PUSH1 0x5 PUSH1 0x0 PUSH2 0x100 EXP DUP2 SLOAD DUP2 PUSH20 0xFFFFFFFFFFFFFFFFFFFFFFFFFFFFFFFFFFFFFFFF MUL NOT AND SWAP1 DUP4 PUSH20 0xFFFFFFFFFFFFFFFFFFFFFFFFFFFFFFFFFFFFFFFF AND MUL OR SWAP1 SSTORE POP POP JUMP JUMPDEST DUP1 PUSH1 0x4 PUSH1 0x0 PUSH2 0x100 EXP DUP2 SLOAD DUP2 PUSH20 0xFFFFFFFFFFFFFFFFFFFFFFFFFFFFFFFFFFFFFFFF MUL NOT AND SWAP1 DUP4 PUSH20 0xFFFFFFFFFFFFFFFFFFFFFFFFFFFFFFFFFFFFFFFF AND MUL OR SWAP1 SSTORE POP POP JUMP JUMPDEST PUSH1 0x0 DUP2 MLOAD SWAP1 POP PUSH3 0x3C1 DUP2 PUSH3 0x432 JUMP JUMPDEST SWAP3 SWAP2 POP POP JUMP JUMPDEST PUSH1 0x0 PUSH1 0x20 DUP3 DUP5 SUB SLT ISZERO PUSH3 0x3E0 JUMPI PUSH3 0x3DF PUSH3 0x42D JUMP JUMPDEST JUMPDEST PUSH1 0x0 PUSH3 0x3F0 DUP5 DUP3 DUP6 ADD PUSH3 0x3B0 JUMP JUMPDEST SWAP2 POP POP SWAP3 SWAP2 POP POP JUMP JUMPDEST PUSH1 0x0 PUSH3 0x406 DUP3 PUSH3 0x40D JUMP JUMPDEST SWAP1 POP SWAP2 SWAP1 POP JUMP JUMPDEST PUSH1 0x0 PUSH20 0xFFFFFFFFFFFFFFFFFFFFFFFFFFFFFFFFFFFFFFFF DUP3 AND SWAP1 POP SWAP2 SWAP1 POP JUMP JUMPDEST PUSH1 0x0 DUP1 REVERT JUMPDEST PUSH3 0x43D DUP2 PUSH3 0x3F9 JUMP JUMPDEST DUP2 EQ PUSH3 0x449 JUMPI PUSH1 0x0 DUP1 REVERT JUMPDEST POP JUMP JUMPDEST PUSH2 0x3AC0 DUP1 PUSH3 0x45C PUSH1 0x0 CODECOPY PUSH1 0x0 RETURN INVALID PUSH1 0x80 PUSH1 0x40 MSTORE PUSH1 0x4 CALLDATASIZE LT PUSH2 0x12A JUMPI PUSH1 0x0 CALLDATALOAD PUSH1 0xE0 SHR DUP1 PUSH4 0x8456CB59 GT PUSH2 0xAB JUMPI DUP1 PUSH4 0xB66320FA GT PUSH2 0x6F JUMPI DUP1 PUSH4 0xB66320FA EQ PUSH2 0x397 JUMPI DUP1 PUSH4 0xEEECB47F EQ PUSH2 0x3C0 JUMPI DUP1 PUSH4 0xF2FDE38B EQ PUSH2 0x3FD JUMPI DUP1 PUSH4 0xF3333214 EQ PUSH2 0x426 JUMPI DUP1 PUSH4 0xFB38596B EQ PUSH2 0x44F JUMPI DUP1 PUSH4 0xFD68990A EQ PUSH2 0x48C JUMPI PUSH2 0x12A JUMP JUMPDEST DUP1 PUSH4 0x8456CB59 EQ PUSH2 0x2F7 JUMPI DUP1 PUSH4 0x8DA5CB5B EQ PUSH2 0x30E JUMPI DUP1 PUSH4 0x8DC654A2 EQ PUSH2 0x339 JUMPI DUP1 PUSH4 0x8E15F473 EQ PUSH2 0x350 JUMPI DUP1 PUSH4 0xABD97219 EQ PUSH2 0x37B JUMPI PUSH2 0x12A JUMP JUMPDEST DUP1 PUSH4 0x5C975ABB GT PUSH2 0xF2 JUMPI DUP1 PUSH4 0x5C975ABB EQ PUSH2 0x226 JUMPI DUP1 PUSH4 0x6602231D EQ PUSH2 0x251 JUMPI DUP1 PUSH4 0x6ACB0D60 EQ PUSH2 0x27A JUMPI DUP1 PUSH4 0x715018A6 EQ PUSH2 0x2B7 JUMPI DUP1 PUSH4 0x7ADBF973 EQ PUSH2 0x2CE JUMPI PUSH2 0x12A JUMP JUMPDEST DUP1 PUSH4 0x7B4B753 EQ PUSH2 0x12F JUMPI DUP1 PUSH4 0x1D86D2D7 EQ PUSH2 0x16C JUMPI DUP1 PUSH4 0x3F4BA83A EQ PUSH2 0x1A9 JUMPI DUP1 PUSH4 0x449C9E37 EQ PUSH2 0x1C0 JUMPI DUP1 PUSH4 0x52492815 EQ PUSH2 0x1FD JUMPI JUMPDEST PUSH1 0x0 DUP1 REVERT JUMPDEST CALLVALUE DUP1 ISZERO PUSH2 0x13B JUMPI PUSH1 0x0 DUP1 REVERT JUMPDEST POP PUSH2 0x156 PUSH1 0x4 DUP1 CALLDATASIZE SUB DUP2 ADD SWAP1 PUSH2 0x151 SWAP2 SWAP1 PUSH2 0x28ED JUMP JUMPDEST PUSH2 0x4B5 JUMP JUMPDEST PUSH1 0x40 MLOAD PUSH2 0x163 SWAP2 SWAP1 PUSH2 0x3005 JUMP JUMPDEST PUSH1 0x40 MLOAD DUP1 SWAP2 SUB SWAP1 RETURN JUMPDEST CALLVALUE DUP1 ISZERO PUSH2 0x178 JUMPI PUSH1 0x0 DUP1 REVERT JUMPDEST POP PUSH2 0x193 PUSH1 0x4 DUP1 CALLDATASIZE SUB DUP2 ADD SWAP1 PUSH2 0x18E SWAP2 SWAP1 PUSH2 0x28ED JUMP JUMPDEST PUSH2 0x555 JUMP JUMPDEST PUSH1 0x40 MLOAD PUSH2 0x1A0 SWAP2 SWAP1 PUSH2 0x3147 JUMP JUMPDEST PUSH1 0x40 MLOAD DUP1 SWAP2 SUB SWAP1 RETURN JUMPDEST CALLVALUE DUP1 ISZERO PUSH2 0x1B5 JUMPI PUSH1 0x0 DUP1 REVERT JUMPDEST POP PUSH2 0x1BE PUSH2 0x56D JUMP JUMPDEST STOP JUMPDEST CALLVALUE DUP1 ISZERO PUSH2 0x1CC JUMPI PUSH1 0x0 DUP1 REVERT JUMPDEST POP PUSH2 0x1E7 PUSH1 0x4 DUP1 CALLDATASIZE SUB DUP2 ADD SWAP1 PUSH2 0x1E2 SWAP2 SWAP1 PUSH2 0x28ED JUMP JUMPDEST PUSH2 0x648 JUMP JUMPDEST PUSH1 0x40 MLOAD PUSH2 0x1F4 SWAP2 SWAP1 PUSH2 0x3005 JUMP JUMPDEST PUSH1 0x40 MLOAD DUP1 SWAP2 SUB SWAP1 RETURN JUMPDEST CALLVALUE DUP1 ISZERO PUSH2 0x209 JUMPI PUSH1 0x0 DUP1 REVERT JUMPDEST POP PUSH2 0x224 PUSH1 0x4 DUP1 CALLDATASIZE SUB DUP2 ADD SWAP1 PUSH2 0x21F SWAP2 SWAP1 PUSH2 0x2A8A JUMP JUMPDEST PUSH2 0x6E8 JUMP JUMPDEST STOP JUMPDEST CALLVALUE DUP1 ISZERO PUSH2 0x232 JUMPI PUSH1 0x0 DUP1 REVERT JUMPDEST POP PUSH2 0x23B PUSH2 0x7A5 JUMP JUMPDEST PUSH1 0x40 MLOAD PUSH2 0x248 SWAP2 SWAP1 PUSH2 0x2FCF JUMP JUMPDEST PUSH1 0x40 MLOAD DUP1 SWAP2 SUB SWAP1 RETURN JUMPDEST CALLVALUE DUP1 ISZERO PUSH2 0x25D JUMPI PUSH1 0x0 DUP1 REVERT JUMPDEST POP PUSH2 0x278 PUSH1 0x4 DUP1 CALLDATASIZE SUB DUP2 ADD SWAP1 PUSH2 0x273 SWAP2 SWAP1 PUSH2 0x2A8A JUMP JUMPDEST PUSH2 0x7BC JUMP JUMPDEST STOP JUMPDEST CALLVALUE DUP1 ISZERO PUSH2 0x286 JUMPI PUSH1 0x0 DUP1 REVERT JUMPDEST POP PUSH2 0x2A1 PUSH1 0x4 DUP1 CALLDATASIZE SUB DUP2 ADD SWAP1 PUSH2 0x29C SWAP2 SWAP1 PUSH2 0x295A JUMP JUMPDEST PUSH2 0x842 JUMP JUMPDEST PUSH1 0x40 MLOAD PUSH2 0x2AE SWAP2 SWAP1 PUSH2 0x2EC8 JUMP JUMPDEST PUSH1 0x40 MLOAD DUP1 SWAP2 SUB SWAP1 RETURN JUMPDEST CALLVALUE DUP1 ISZERO PUSH2 0x2C3 JUMPI PUSH1 0x0 DUP1 REVERT JUMPDEST POP PUSH2 0x2CC PUSH2 0x88B JUMP JUMPDEST STOP JUMPDEST CALLVALUE DUP1 ISZERO PUSH2 0x2DA JUMPI PUSH1 0x0 DUP1 REVERT JUMPDEST POP PUSH2 0x2F5 PUSH1 0x4 DUP1 CALLDATASIZE SUB DUP2 ADD SWAP1 PUSH2 0x2F0 SWAP2 SWAP1 PUSH2 0x2893 JUMP JUMPDEST PUSH2 0x913 JUMP JUMPDEST STOP JUMPDEST CALLVALUE DUP1 ISZERO PUSH2 0x303 JUMPI PUSH1 0x0 DUP1 REVERT JUMPDEST POP PUSH2 0x30C PUSH2 0x9D3 JUMP JUMPDEST STOP JUMPDEST CALLVALUE DUP1 ISZERO PUSH2 0x31A JUMPI PUSH1 0x0 DUP1 REVERT JUMPDEST POP PUSH2 0x323 PUSH2 0xAAE JUMP JUMPDEST PUSH1 0x40 MLOAD PUSH2 0x330 SWAP2 SWAP1 PUSH2 0x2EAD JUMP JUMPDEST PUSH1 0x40 MLOAD DUP1 SWAP2 SUB SWAP1 RETURN JUMPDEST CALLVALUE DUP1 ISZERO PUSH2 0x345 JUMPI PUSH1 0x0 DUP1 REVERT JUMPDEST POP PUSH2 0x34E PUSH2 0xAD7 JUMP JUMPDEST STOP JUMPDEST CALLVALUE DUP1 ISZERO PUSH2 0x35C JUMPI PUSH1 0x0 DUP1 REVERT JUMPDEST POP PUSH2 0x365 PUSH2 0xCB6 JUMP JUMPDEST PUSH1 0x40 MLOAD PUSH2 0x372 SWAP2 SWAP1 PUSH2 0x2FEA JUMP JUMPDEST PUSH1 0x40 MLOAD DUP1 SWAP2 SUB SWAP1 RETURN JUMPDEST PUSH2 0x395 PUSH1 0x4 DUP1 CALLDATASIZE SUB DUP2 ADD SWAP1 PUSH2 0x390 SWAP2 SWAP1 PUSH2 0x29FF JUMP JUMPDEST PUSH2 0xD66 JUMP JUMPDEST STOP JUMPDEST CALLVALUE DUP1 ISZERO PUSH2 0x3A3 JUMPI PUSH1 0x0 DUP1 REVERT JUMPDEST POP PUSH2 0x3BE PUSH1 0x4 DUP1 CALLDATASIZE SUB DUP2 ADD SWAP1 PUSH2 0x3B9 SWAP2 SWAP1 PUSH2 0x29A3 JUMP JUMPDEST PUSH2 0xFCA JUMP JUMPDEST STOP JUMPDEST CALLVALUE DUP1 ISZERO PUSH2 0x3CC JUMPI PUSH1 0x0 DUP1 REVERT JUMPDEST POP PUSH2 0x3E7 PUSH1 0x4 DUP1 CALLDATASIZE SUB DUP2 ADD SWAP1 PUSH2 0x3E2 SWAP2 SWAP1 PUSH2 0x295A JUMP JUMPDEST PUSH2 0x11D2 JUMP JUMPDEST PUSH1 0x40 MLOAD PUSH2 0x3F4 SWAP2 SWAP1 PUSH2 0x2EC8 JUMP JUMPDEST PUSH1 0x40 MLOAD DUP1 SWAP2 SUB SWAP1 RETURN JUMPDEST CALLVALUE DUP1 ISZERO PUSH2 0x409 JUMPI PUSH1 0x0 DUP1 REVERT JUMPDEST POP PUSH2 0x424 PUSH1 0x4 DUP1 CALLDATASIZE SUB DUP2 ADD SWAP1 PUSH2 0x41F SWAP2 SWAP1 PUSH2 0x2893 JUMP JUMPDEST PUSH2 0x121B JUMP JUMPDEST STOP JUMPDEST CALLVALUE DUP1 ISZERO PUSH2 0x432 JUMPI PUSH1 0x0 DUP1 REVERT JUMPDEST POP PUSH2 0x44D PUSH1 0x4 DUP1 CALLDATASIZE SUB DUP2 ADD SWAP1 PUSH2 0x448 SWAP2 SWAP1 PUSH2 0x291A JUMP JUMPDEST PUSH2 0x1313 JUMP JUMPDEST STOP JUMPDEST CALLVALUE DUP1 ISZERO PUSH2 0x45B JUMPI PUSH1 0x0 DUP1 REVERT JUMPDEST POP PUSH2 0x476 PUSH1 0x4 DUP1 CALLDATASIZE SUB DUP2 ADD SWAP1 PUSH2 0x471 SWAP2 SWAP1 PUSH2 0x28ED JUMP JUMPDEST PUSH2 0x1521 JUMP JUMPDEST PUSH1 0x40 MLOAD PUSH2 0x483 SWAP2 SWAP1 PUSH2 0x3005 JUMP JUMPDEST PUSH1 0x40 MLOAD DUP1 SWAP2 SUB SWAP1 RETURN JUMPDEST CALLVALUE DUP1 ISZERO PUSH2 0x498 JUMPI PUSH1 0x0 DUP1 REVERT JUMPDEST POP PUSH2 0x4B3 PUSH1 0x4 DUP1 CALLDATASIZE SUB DUP2 ADD SWAP1 PUSH2 0x4AE SWAP2 SWAP1 PUSH2 0x291A JUMP JUMPDEST PUSH2 0x15C1 JUMP JUMPDEST STOP JUMPDEST PUSH1 0xF PUSH1 0x20 MSTORE DUP1 PUSH1 0x0 MSTORE PUSH1 0x40 PUSH1 0x0 KECCAK256 PUSH1 0x0 SWAP2 POP SWAP1 POP DUP1 SLOAD PUSH2 0x4D4 SWAP1 PUSH2 0x35E8 JUMP JUMPDEST DUP1 PUSH1 0x1F ADD PUSH1 0x20 DUP1 SWAP2 DIV MUL PUSH1 0x20 ADD PUSH1 0x40 MLOAD SWAP1 DUP2 ADD PUSH1 0x40 MSTORE DUP1 SWAP3 SWAP2 SWAP1 DUP2 DUP2 MSTORE PUSH1 0x20 ADD DUP3 DUP1 SLOAD PUSH2 0x500 SWAP1 PUSH2 0x35E8 JUMP JUMPDEST DUP1 ISZERO PUSH2 0x54D JUMPI DUP1 PUSH1 0x1F LT PUSH2 0x522 JUMPI PUSH2 0x100 DUP1 DUP4 SLOAD DIV MUL DUP4 MSTORE SWAP2 PUSH1 0x20 ADD SWAP2 PUSH2 0x54D JUMP JUMPDEST DUP3 ADD SWAP2 SWAP1 PUSH1 0x0 MSTORE PUSH1 0x20 PUSH1 0x0 KECCAK256 SWAP1 JUMPDEST DUP2 SLOAD DUP2 MSTORE SWAP1 PUSH1 0x1 ADD SWAP1 PUSH1 0x20 ADD DUP1 DUP4 GT PUSH2 0x530 JUMPI DUP3 SWAP1 SUB PUSH1 0x1F AND DUP3 ADD SWAP2 JUMPDEST POP POP POP POP POP DUP2 JUMP JUMPDEST PUSH1 0x10 PUSH1 0x20 MSTORE DUP1 PUSH1 0x0 MSTORE PUSH1 0x40 PUSH1 0x0 KECCAK256 PUSH1 0x0 SWAP2 POP SWAP1 POP SLOAD DUP2 JUMP JUMPDEST PUSH1 0x2 PUSH1 0x1 SLOAD EQ ISZERO PUSH2 0x5B3 JUMPI PUSH1 0x40 MLOAD PUSH32 0x8C379A000000000000000000000000000000000000000000000000000000000 DUP2 MSTORE PUSH1 0x4 ADD PUSH2 0x5AA SWAP1 PUSH2 0x3127 JUMP JUMPDEST PUSH1 0x40 MLOAD DUP1 SWAP2 SUB SWAP1 REVERT JUMPDEST PUSH1 0x2 PUSH1 0x1 DUP2 SWAP1 SSTORE POP PUSH2 0x5C3 PUSH2 0x1832 JUMP JUMPDEST PUSH20 0xFFFFFFFFFFFFFFFFFFFFFFFFFFFFFFFFFFFFFFFF AND PUSH2 0x5E1 PUSH2 0xAAE JUMP JUMPDEST PUSH20 0xFFFFFFFFFFFFFFFFFFFFFFFFFFFFFFFFFFFFFFFF AND EQ PUSH2 0x637 JUMPI PUSH1 0x40 MLOAD PUSH32 0x8C379A000000000000000000000000000000000000000000000000000000000 DUP2 MSTORE PUSH1 0x4 ADD PUSH2 0x62E SWAP1 PUSH2 0x30E7 JUMP JUMPDEST PUSH1 0x40 MLOAD DUP1 SWAP2 SUB SWAP1 REVERT JUMPDEST PUSH2 0x63F PUSH2 0x183A JUMP JUMPDEST PUSH1 0x1 DUP1 DUP2 SWAP1 SSTORE POP JUMP JUMPDEST PUSH1 0x12 PUSH1 0x20 MSTORE DUP1 PUSH1 0x0 MSTORE PUSH1 0x40 PUSH1 0x0 KECCAK256 PUSH1 0x0 SWAP2 POP SWAP1 POP DUP1 SLOAD PUSH2 0x667 SWAP1 PUSH2 0x35E8 JUMP JUMPDEST DUP1 PUSH1 0x1F ADD PUSH1 0x20 DUP1 SWAP2 DIV MUL PUSH1 0x20 ADD PUSH1 0x40 MLOAD SWAP1 DUP2 ADD PUSH1 0x40 MSTORE DUP1 SWAP3 SWAP2 SWAP1 DUP2 DUP2 MSTORE PUSH1 0x20 ADD DUP3 DUP1 SLOAD PUSH2 0x693 SWAP1 PUSH2 0x35E8 JUMP JUMPDEST DUP1 ISZERO PUSH2 0x6E0 JUMPI DUP1 PUSH1 0x1F LT PUSH2 0x6B5 JUMPI PUSH2 0x100 DUP1 DUP4 SLOAD DIV MUL DUP4 MSTORE SWAP2 PUSH1 0x20 ADD SWAP2 PUSH2 0x6E0 JUMP JUMPDEST DUP3 ADD SWAP2 SWAP1 PUSH1 0x0 MSTORE PUSH1 0x20 PUSH1 0x0 KECCAK256 SWAP1 JUMPDEST DUP2 SLOAD DUP2 MSTORE SWAP1 PUSH1 0x1 ADD SWAP1 PUSH1 0x20 ADD DUP1 DUP4 GT PUSH2 0x6C3 JUMPI DUP3 SWAP1 SUB PUSH1 0x1F AND DUP3 ADD SWAP2 JUMPDEST POP POP POP POP POP DUP2 JUMP JUMPDEST PUSH2 0x6F0 PUSH2 0x1832 JUMP JUMPDEST PUSH20 0xFFFFFFFFFFFFFFFFFFFFFFFFFFFFFFFFFFFFFFFF AND PUSH2 0x70E PUSH2 0xAAE JUMP JUMPDEST PUSH20 0xFFFFFFFFFFFFFFFFFFFFFFFFFFFFFFFFFFFFFFFF AND EQ PUSH2 0x764 JUMPI PUSH1 0x40 MLOAD PUSH32 0x8C379A000000000000000000000000000000000000000000000000000000000 DUP2 MSTORE PUSH1 0x4 ADD PUSH2 0x75B SWAP1 PUSH2 0x30E7 JUMP JUMPDEST PUSH1 0x40 MLOAD DUP1 SWAP2 SUB SWAP1 REVERT JUMPDEST DUP1 PUSH1 0xA DUP2 SWAP1 SSTORE POP PUSH32 0xE854185167CFF7D85F6CE2AE7D2940249C4A78AE54E270A5F7DDDF8E5D7CC458 DUP2 PUSH1 0x40 MLOAD PUSH2 0x79A SWAP2 SWAP1 PUSH2 0x3147 JUMP JUMPDEST PUSH1 0x40 MLOAD DUP1 SWAP2 SUB SWAP1 LOG1 POP JUMP JUMPDEST PUSH1 0x0 PUSH1 0x2 PUSH1 0x0 SWAP1 SLOAD SWAP1 PUSH2 0x100 EXP SWAP1 DIV PUSH1 0xFF AND SWAP1 POP SWAP1 JUMP JUMPDEST PUSH2 0x7C4 PUSH2 0x1832 JUMP JUMPDEST PUSH20 0xFFFFFFFFFFFFFFFFFFFFFFFFFFFFFFFFFFFFFFFF AND PUSH2 0x7E2 PUSH2 0xAAE JUMP JUMPDEST PUSH20 0xFFFFFFFFFFFFFFFFFFFFFFFFFFFFFFFFFFFFFFFF AND EQ PUSH2 0x838 JUMPI PUSH1 0x40 MLOAD PUSH32 0x8C379A000000000000000000000000000000000000000000000000000000000 DUP2 MSTORE PUSH1 0x4 ADD PUSH2 0x82F SWAP1 PUSH2 0x30E7 JUMP JUMPDEST PUSH1 0x40 MLOAD DUP1 SWAP2 SUB SWAP1 REVERT JUMPDEST DUP1 PUSH1 0xB DUP2 SWAP1 SSTORE POP POP JUMP JUMPDEST PUSH1 0xD DUP2 DUP1 MLOAD PUSH1 0x20 DUP2 ADD DUP3 ADD DUP1 MLOAD DUP5 DUP3 MSTORE PUSH1 0x20 DUP4 ADD PUSH1 0x20 DUP6 ADD KECCAK256 DUP2 DUP4 MSTORE DUP1 SWAP6 POP POP POP POP POP POP PUSH1 0x0 SWAP2 POP SLOAD SWAP1 PUSH2 0x100 EXP SWAP1 DIV PUSH20 0xFFFFFFFFFFFFFFFFFFFFFFFFFFFFFFFFFFFFFFFF AND DUP2 JUMP JUMPDEST PUSH2 0x893 PUSH2 0x1832 JUMP JUMPDEST PUSH20 0xFFFFFFFFFFFFFFFFFFFFFFFFFFFFFFFFFFFFFFFF AND PUSH2 0x8B1 PUSH2 0xAAE JUMP JUMPDEST PUSH20 0xFFFFFFFFFFFFFFFFFFFFFFFFFFFFFFFFFFFFFFFF AND EQ PUSH2 0x907 JUMPI PUSH1 0x40 MLOAD PUSH32 0x8C379A000000000000000000000000000000000000000000000000000000000 DUP2 MSTORE PUSH1 0x4 ADD PUSH2 0x8FE SWAP1 PUSH2 0x30E7 JUMP JUMPDEST PUSH1 0x40 MLOAD DUP1 SWAP2 SUB SWAP1 REVERT JUMPDEST PUSH2 0x911 PUSH1 0x0 PUSH2 0x18DC JUMP JUMPDEST JUMP JUMPDEST PUSH2 0x91B PUSH2 0x1832 JUMP JUMPDEST PUSH20 0xFFFFFFFFFFFFFFFFFFFFFFFFFFFFFFFFFFFFFFFF AND PUSH2 0x939 PUSH2 0xAAE JUMP JUMPDEST PUSH20 0xFFFFFFFFFFFFFFFFFFFFFFFFFFFFFFFFFFFFFFFF AND EQ PUSH2 0x98F JUMPI PUSH1 0x40 MLOAD PUSH32 0x8C379A000000000000000000000000000000000000000000000000000000000 DUP2 MSTORE PUSH1 0x4 ADD PUSH2 0x986 SWAP1 PUSH2 0x30E7 JUMP JUMPDEST PUSH1 0x40 MLOAD DUP1 SWAP2 SUB SWAP1 REVERT JUMPDEST DUP1 PUSH1 0x9 PUSH1 0x0 PUSH2 0x100 EXP DUP2 SLOAD DUP2 PUSH20 0xFFFFFFFFFFFFFFFFFFFFFFFFFFFFFFFFFFFFFFFF MUL NOT AND SWAP1 DUP4 PUSH20 0xFFFFFFFFFFFFFFFFFFFFFFFFFFFFFFFFFFFFFFFF AND MUL OR SWAP1 SSTORE POP POP JUMP JUMPDEST PUSH1 0x2 PUSH1 0x1 SLOAD EQ ISZERO PUSH2 0xA19 JUMPI PUSH1 0x40 MLOAD PUSH32 0x8C379A000000000000000000000000000000000000000000000000000000000 DUP2 MSTORE PUSH1 0x4 ADD PUSH2 0xA10 SWAP1 PUSH2 0x3127 JUMP JUMPDEST PUSH1 0x40 MLOAD DUP1 SWAP2 SUB SWAP1 REVERT JUMPDEST PUSH1 0x2 PUSH1 0x1 DUP2 SWAP1 SSTORE POP PUSH2 0xA29 PUSH2 0x1832 JUMP JUMPDEST PUSH20 0xFFFFFFFFFFFFFFFFFFFFFFFFFFFFFFFFFFFFFFFF AND PUSH2 0xA47 PUSH2 0xAAE JUMP JUMPDEST PUSH20 0xFFFFFFFFFFFFFFFFFFFFFFFFFFFFFFFFFFFFFFFF AND EQ PUSH2 0xA9D JUMPI PUSH1 0x40 MLOAD PUSH32 0x8C379A000000000000000000000000000000000000000000000000000000000 DUP2 MSTORE PUSH1 0x4 ADD PUSH2 0xA94 SWAP1 PUSH2 0x30E7 JUMP JUMPDEST PUSH1 0x40 MLOAD DUP1 SWAP2 SUB SWAP1 REVERT JUMPDEST PUSH2 0xAA5 PUSH2 0x19A0 JUMP JUMPDEST PUSH1 0x1 DUP1 DUP2 SWAP1 SSTORE POP JUMP JUMPDEST PUSH1 0x0 DUP1 PUSH1 0x0 SWAP1 SLOAD SWAP1 PUSH2 0x100 EXP SWAP1 DIV PUSH20 0xFFFFFFFFFFFFFFFFFFFFFFFFFFFFFFFFFFFFFFFF AND SWAP1 POP SWAP1 JUMP JUMPDEST PUSH2 0xADF PUSH2 0x1832 JUMP JUMPDEST PUSH20 0xFFFFFFFFFFFFFFFFFFFFFFFFFFFFFFFFFFFFFFFF AND PUSH2 0xAFD PUSH2 0xAAE JUMP JUMPDEST PUSH20 0xFFFFFFFFFFFFFFFFFFFFFFFFFFFFFFFFFFFFFFFF AND EQ PUSH2 0xB53 JUMPI PUSH1 0x40 MLOAD PUSH32 0x8C379A000000000000000000000000000000000000000000000000000000000 DUP2 MSTORE PUSH1 0x4 ADD PUSH2 0xB4A SWAP1 PUSH2 0x30E7 JUMP JUMPDEST PUSH1 0x40 MLOAD DUP1 SWAP2 SUB SWAP1 REVERT JUMPDEST PUSH1 0x0 PUSH2 0xB5D PUSH2 0x1A43 JUMP JUMPDEST SWAP1 POP DUP1 PUSH20 0xFFFFFFFFFFFFFFFFFFFFFFFFFFFFFFFFFFFFFFFF AND PUSH4 0xA9059CBB CALLER DUP4 PUSH20 0xFFFFFFFFFFFFFFFFFFFFFFFFFFFFFFFFFFFFFFFF AND PUSH4 0x70A08231 ADDRESS PUSH1 0x40 MLOAD DUP3 PUSH4 0xFFFFFFFF AND PUSH1 0xE0 SHL DUP2 MSTORE PUSH1 0x4 ADD PUSH2 0xBB5 SWAP2 SWAP1 PUSH2 0x2EAD JUMP JUMPDEST PUSH1 0x20 PUSH1 0x40 MLOAD DUP1 DUP4 SUB DUP2 DUP7 DUP1 EXTCODESIZE ISZERO DUP1 ISZERO PUSH2 0xBCD JUMPI PUSH1 0x0 DUP1 REVERT JUMPDEST POP GAS STATICCALL ISZERO DUP1 ISZERO PUSH2 0xBE1 JUMPI RETURNDATASIZE PUSH1 0x0 DUP1 RETURNDATACOPY RETURNDATASIZE PUSH1 0x0 REVERT JUMPDEST POP POP POP POP PUSH1 0x40 MLOAD RETURNDATASIZE PUSH1 0x1F NOT PUSH1 0x1F DUP3 ADD AND DUP3 ADD DUP1 PUSH1 0x40 MSTORE POP DUP2 ADD SWAP1 PUSH2 0xC05 SWAP2 SWAP1 PUSH2 0x2AB7 JUMP JUMPDEST PUSH1 0x40 MLOAD DUP4 PUSH4 0xFFFFFFFF AND PUSH1 0xE0 SHL DUP2 MSTORE PUSH1 0x4 ADD PUSH2 0xC22 SWAP3 SWAP2 SWAP1 PUSH2 0x2EE3 JUMP JUMPDEST PUSH1 0x20 PUSH1 0x40 MLOAD DUP1 DUP4 SUB DUP2 PUSH1 0x0 DUP8 DUP1 EXTCODESIZE ISZERO DUP1 ISZERO PUSH2 0xC3C JUMPI PUSH1 0x0 DUP1 REVERT JUMPDEST POP GAS CALL ISZERO DUP1 ISZERO PUSH2 0xC50 JUMPI RETURNDATASIZE PUSH1 0x0 DUP1 RETURNDATACOPY RETURNDATASIZE PUSH1 0x0 REVERT JUMPDEST POP POP POP POP PUSH1 0x40 MLOAD RETURNDATASIZE PUSH1 0x1F NOT PUSH1 0x1F DUP3 ADD AND DUP3 ADD DUP1 PUSH1 0x40 MSTORE POP DUP2 ADD SWAP1 PUSH2 0xC74 SWAP2 SWAP1 PUSH2 0x28C0 JUMP JUMPDEST PUSH2 0xCB3 JUMPI PUSH1 0x40 MLOAD PUSH32 0x8C379A000000000000000000000000000000000000000000000000000000000 DUP2 MSTORE PUSH1 0x4 ADD PUSH2 0xCAA SWAP1 PUSH2 0x30C7 JUMP JUMPDEST PUSH1 0x40 MLOAD DUP1 SWAP2 SUB SWAP1 REVERT JUMPDEST POP JUMP JUMPDEST PUSH1 0x0 DUP1 PUSH1 0x8 PUSH1 0x0 SWAP1 SLOAD SWAP1 PUSH2 0x100 EXP SWAP1 DIV PUSH20 0xFFFFFFFFFFFFFFFFFFFFFFFFFFFFFFFFFFFFFFFF AND PUSH20 0xFFFFFFFFFFFFFFFFFFFFFFFFFFFFFFFFFFFFFFFF AND PUSH4 0xFEAF968C PUSH1 0x40 MLOAD DUP2 PUSH4 0xFFFFFFFF AND PUSH1 0xE0 SHL DUP2 MSTORE PUSH1 0x4 ADD PUSH1 0xA0 PUSH1 0x40 MLOAD DUP1 DUP4 SUB DUP2 DUP7 DUP1 EXTCODESIZE ISZERO DUP1 ISZERO PUSH2 0xD21 JUMPI PUSH1 0x0 DUP1 REVERT JUMPDEST POP GAS STATICCALL ISZERO DUP1 ISZERO PUSH2 0xD35 JUMPI RETURNDATASIZE PUSH1 0x0 DUP1 RETURNDATACOPY RETURNDATASIZE PUSH1 0x0 REVERT JUMPDEST POP POP POP POP PUSH1 0x40 MLOAD RETURNDATASIZE PUSH1 0x1F NOT PUSH1 0x1F DUP3 ADD AND DUP3 ADD DUP1 PUSH1 0x40 MSTORE POP DUP2 ADD SWAP1 PUSH2 0xD59 SWAP2 SWAP1 PUSH2 0x2AE4 JUMP JUMPDEST POP POP POP SWAP2 POP POP DUP1 SWAP2 POP POP SWAP1 JUMP JUMPDEST PUSH2 0xD6E PUSH2 0x7A5 JUMP JUMPDEST ISZERO PUSH2 0xDAE JUMPI PUSH1 0x40 MLOAD PUSH32 0x8C379A000000000000000000000000000000000000000000000000000000000 DUP2 MSTORE PUSH1 0x4 ADD PUSH2 0xDA5 SWAP1 PUSH2 0x30A7 JUMP JUMPDEST PUSH1 0x40 MLOAD DUP1 SWAP2 SUB SWAP1 REVERT JUMPDEST PUSH1 0x0 PUSH32 0x3030646462356130303336343431353761383964373239646131396361383364 SWAP1 POP PUSH1 0x0 PUSH2 0xDE7 DUP3 ADDRESS PUSH4 0xFD68990A PUSH1 0xE0 SHL PUSH2 0x1A6D JUMP JUMPDEST SWAP1 POP PUSH2 0xE33 PUSH1 0x40 MLOAD DUP1 PUSH1 0x40 ADD PUSH1 0x40 MSTORE DUP1 PUSH1 0x8 DUP2 MSTORE PUSH1 0x20 ADD PUSH32 0x757365726E616D65000000000000000000000000000000000000000000000000 DUP2 MSTORE POP DUP7 DUP4 PUSH2 0x1A9E SWAP1 SWAP3 SWAP2 SWAP1 PUSH4 0xFFFFFFFF AND JUMP JUMPDEST PUSH2 0xE85 PUSH1 0x40 MLOAD DUP1 PUSH1 0x40 ADD PUSH1 0x40 MSTORE DUP1 PUSH1 0x7 DUP2 MSTORE PUSH1 0x20 ADD PUSH32 0x6F72646572496400000000000000000000000000000000000000000000000000 DUP2 MSTORE POP PUSH2 0xE75 DUP6 PUSH2 0x1AD1 JUMP JUMPDEST DUP4 PUSH2 0x1A9E SWAP1 SWAP3 SWAP2 SWAP1 PUSH4 0xFFFFFFFF AND JUMP JUMPDEST PUSH2 0xEDE PUSH1 0x40 MLOAD DUP1 PUSH1 0x40 ADD PUSH1 0x40 MSTORE DUP1 PUSH1 0x9 DUP2 MSTORE PUSH1 0x20 ADD PUSH32 0x7072696365446174610000000000000000000000000000000000000000000000 DUP2 MSTORE POP PUSH2 0xECE PUSH2 0xEC9 PUSH2 0xCB6 JUMP JUMPDEST PUSH2 0x1AD1 JUMP JUMPDEST DUP4 PUSH2 0x1A9E SWAP1 SWAP3 SWAP2 SWAP1 PUSH4 0xFFFFFFFF AND JUMP JUMPDEST PUSH2 0xF30 PUSH1 0x40 MLOAD DUP1 PUSH1 0x40 ADD PUSH1 0x40 MSTORE DUP1 PUSH1 0x5 DUP2 MSTORE PUSH1 0x20 ADD PUSH32 0x76616C7565000000000000000000000000000000000000000000000000000000 DUP2 MSTORE POP PUSH2 0xF20 CALLVALUE PUSH2 0x1AD1 JUMP JUMPDEST DUP4 PUSH2 0x1A9E SWAP1 SWAP3 SWAP2 SWAP1 PUSH4 0xFFFFFFFF AND JUMP JUMPDEST PUSH1 0x0 PUSH2 0xF3E DUP3 PUSH1 0xA SLOAD PUSH2 0x1C32 JUMP JUMPDEST SWAP1 POP PUSH2 0x2710 PUSH1 0xB SLOAD CALLVALUE PUSH2 0xF51 SWAP2 SWAP1 PUSH2 0x3408 JUMP JUMPDEST PUSH2 0xF5B SWAP2 SWAP1 PUSH2 0x3266 JUMP JUMPDEST PUSH1 0x10 PUSH1 0x0 DUP4 DUP2 MSTORE PUSH1 0x20 ADD SWAP1 DUP2 MSTORE PUSH1 0x20 ADD PUSH1 0x0 KECCAK256 DUP2 SWAP1 SSTORE POP DUP6 PUSH1 0x11 PUSH1 0x0 DUP4 DUP2 MSTORE PUSH1 0x20 ADD SWAP1 DUP2 MSTORE PUSH1 0x20 ADD PUSH1 0x0 KECCAK256 SWAP1 DUP1 MLOAD SWAP1 PUSH1 0x20 ADD SWAP1 PUSH2 0xF99 SWAP3 SWAP2 SWAP1 PUSH2 0x2651 JUMP JUMPDEST POP DUP5 PUSH1 0x12 PUSH1 0x0 DUP4 DUP2 MSTORE PUSH1 0x20 ADD SWAP1 DUP2 MSTORE PUSH1 0x20 ADD PUSH1 0x0 KECCAK256 SWAP1 DUP1 MLOAD SWAP1 PUSH1 0x20 ADD SWAP1 PUSH2 0xFC1 SWAP3 SWAP2 SWAP1 PUSH2 0x2651 JUMP JUMPDEST POP POP POP POP POP POP POP JUMP JUMPDEST PUSH2 0xFD2 PUSH2 0x7A5 JUMP JUMPDEST ISZERO PUSH2 0x1012 JUMPI PUSH1 0x40 MLOAD PUSH32 0x8C379A000000000000000000000000000000000000000000000000000000000 DUP2 MSTORE PUSH1 0x4 ADD PUSH2 0x1009 SWAP1 PUSH2 0x30A7 JUMP JUMPDEST PUSH1 0x40 MLOAD DUP1 SWAP2 SUB SWAP1 REVERT JUMPDEST PUSH1 0x0 PUSH32 0x3131336330316161636635393439643862623534643834623534303239623064 SWAP1 POP CALLER PUSH20 0xFFFFFFFFFFFFFFFFFFFFFFFFFFFFFFFFFFFFFFFF AND DUP3 PUSH20 0xFFFFFFFFFFFFFFFFFFFFFFFFFFFFFFFFFFFFFFFF AND EQ ISZERO PUSH2 0x11CD JUMPI DUP2 PUSH1 0xD DUP5 PUSH1 0x40 MLOAD PUSH2 0x107C SWAP2 SWAP1 PUSH2 0x2E7F JUMP JUMPDEST SWAP1 DUP2 MSTORE PUSH1 0x20 ADD PUSH1 0x40 MLOAD DUP1 SWAP2 SUB SWAP1 KECCAK256 PUSH1 0x0 PUSH2 0x100 EXP DUP2 SLOAD DUP2 PUSH20 0xFFFFFFFFFFFFFFFFFFFFFFFFFFFFFFFFFFFFFFFF MUL NOT AND SWAP1 DUP4 PUSH20 0xFFFFFFFFFFFFFFFFFFFFFFFFFFFFFFFFFFFFFFFF AND MUL OR SWAP1 SSTORE POP PUSH1 0x0 PUSH2 0x10DC DUP3 ADDRESS PUSH4 0xF3333214 PUSH1 0xE0 SHL PUSH2 0x1A6D JUMP JUMPDEST SWAP1 POP PUSH2 0x1128 PUSH1 0x40 MLOAD DUP1 PUSH1 0x40 ADD PUSH1 0x40 MSTORE DUP1 PUSH1 0x8 DUP2 MSTORE PUSH1 0x20 ADD PUSH32 0x757365726E616D65000000000000000000000000000000000000000000000000 DUP2 MSTORE POP DUP6 DUP4 PUSH2 0x1A9E SWAP1 SWAP3 SWAP2 SWAP1 PUSH4 0xFFFFFFFF AND JUMP JUMPDEST PUSH2 0x1192 PUSH1 0x40 MLOAD DUP1 PUSH1 0x40 ADD PUSH1 0x40 MSTORE DUP1 PUSH1 0x7 DUP2 MSTORE PUSH1 0x20 ADD PUSH32 0x6164647265737300000000000000000000000000000000000000000000000000 DUP2 MSTORE POP PUSH2 0x1182 CALLER PUSH20 0xFFFFFFFFFFFFFFFFFFFFFFFFFFFFFFFFFFFFFFFF AND PUSH1 0x14 PUSH2 0x1C69 JUMP JUMPDEST DUP4 PUSH2 0x1A9E SWAP1 SWAP3 SWAP2 SWAP1 PUSH4 0xFFFFFFFF AND JUMP JUMPDEST PUSH1 0x0 PUSH2 0x11A0 DUP3 PUSH1 0xA SLOAD PUSH2 0x1C32 JUMP JUMPDEST SWAP1 POP DUP5 PUSH1 0xF PUSH1 0x0 DUP4 DUP2 MSTORE PUSH1 0x20 ADD SWAP1 DUP2 MSTORE PUSH1 0x20 ADD PUSH1 0x0 KECCAK256 SWAP1 DUP1 MLOAD SWAP1 PUSH1 0x20 ADD SWAP1 PUSH2 0x11C9 SWAP3 SWAP2 SWAP1 PUSH2 0x2651 JUMP JUMPDEST POP POP POP JUMPDEST POP POP POP JUMP JUMPDEST PUSH1 0xE DUP2 DUP1 MLOAD PUSH1 0x20 DUP2 ADD DUP3 ADD DUP1 MLOAD DUP5 DUP3 MSTORE PUSH1 0x20 DUP4 ADD PUSH1 0x20 DUP6 ADD KECCAK256 DUP2 DUP4 MSTORE DUP1 SWAP6 POP POP POP POP POP POP PUSH1 0x0 SWAP2 POP SLOAD SWAP1 PUSH2 0x100 EXP SWAP1 DIV PUSH20 0xFFFFFFFFFFFFFFFFFFFFFFFFFFFFFFFFFFFFFFFF AND DUP2 JUMP JUMPDEST PUSH2 0x1223 PUSH2 0x1832 JUMP JUMPDEST PUSH20 0xFFFFFFFFFFFFFFFFFFFFFFFFFFFFFFFFFFFFFFFF AND PUSH2 0x1241 PUSH2 0xAAE JUMP JUMPDEST PUSH20 0xFFFFFFFFFFFFFFFFFFFFFFFFFFFFFFFFFFFFFFFF AND EQ PUSH2 0x1297 JUMPI PUSH1 0x40 MLOAD PUSH32 0x8C379A000000000000000000000000000000000000000000000000000000000 DUP2 MSTORE PUSH1 0x4 ADD PUSH2 0x128E SWAP1 PUSH2 0x30E7 JUMP JUMPDEST PUSH1 0x40 MLOAD DUP1 SWAP2 SUB SWAP1 REVERT JUMPDEST PUSH1 0x0 PUSH20 0xFFFFFFFFFFFFFFFFFFFFFFFFFFFFFFFFFFFFFFFF AND DUP2 PUSH20 0xFFFFFFFFFFFFFFFFFFFFFFFFFFFFFFFFFFFFFFFF AND EQ ISZERO PUSH2 0x1307 JUMPI PUSH1 0x40 MLOAD PUSH32 0x8C379A000000000000000000000000000000000000000000000000000000000 DUP2 MSTORE PUSH1 0x4 ADD PUSH2 0x12FE SWAP1 PUSH2 0x3067 JUMP JUMPDEST PUSH1 0x40 MLOAD DUP1 SWAP2 SUB SWAP1 REVERT JUMPDEST PUSH2 0x1310 DUP2 PUSH2 0x18DC JUMP JUMPDEST POP JUMP JUMPDEST DUP2 PUSH1 0x7 PUSH1 0x0 DUP3 DUP2 MSTORE PUSH1 0x20 ADD SWAP1 DUP2 MSTORE PUSH1 0x20 ADD PUSH1 0x0 KECCAK256 PUSH1 0x0 SWAP1 SLOAD SWAP1 PUSH2 0x100 EXP SWAP1 DIV PUSH20 0xFFFFFFFFFFFFFFFFFFFFFFFFFFFFFFFFFFFFFFFF AND PUSH20 0xFFFFFFFFFFFFFFFFFFFFFFFFFFFFFFFFFFFFFFFF AND CALLER PUSH20 0xFFFFFFFFFFFFFFFFFFFFFFFFFFFFFFFFFFFFFFFF AND EQ PUSH2 0x13B5 JUMPI PUSH1 0x40 MLOAD PUSH32 0x8C379A000000000000000000000000000000000000000000000000000000000 DUP2 MSTORE PUSH1 0x4 ADD PUSH2 0x13AC SWAP1 PUSH2 0x3107 JUMP JUMPDEST PUSH1 0x40 MLOAD DUP1 SWAP2 SUB SWAP1 REVERT JUMPDEST PUSH1 0x7 PUSH1 0x0 DUP3 DUP2 MSTORE PUSH1 0x20 ADD SWAP1 DUP2 MSTORE PUSH1 0x20 ADD PUSH1 0x0 KECCAK256 PUSH1 0x0 PUSH2 0x100 EXP DUP2 SLOAD SWAP1 PUSH20 0xFFFFFFFFFFFFFFFFFFFFFFFFFFFFFFFFFFFFFFFF MUL NOT AND SWAP1 SSTORE DUP1 PUSH32 0x7CC135E0CEBB02C3480AE5D74D377283180A2601F8F644EDF7987B009316C63A PUSH1 0x40 MLOAD PUSH1 0x40 MLOAD DUP1 SWAP2 SUB SWAP1 LOG2 PUSH1 0x1 ISZERO ISZERO DUP3 ISZERO ISZERO EQ ISZERO PUSH2 0x14E5 JUMPI PUSH1 0xD PUSH1 0xF PUSH1 0x0 DUP6 DUP2 MSTORE PUSH1 0x20 ADD SWAP1 DUP2 MSTORE PUSH1 0x20 ADD PUSH1 0x0 KECCAK256 PUSH1 0x40 MLOAD PUSH2 0x1447 SWAP2 SWAP1 PUSH2 0x2E96 JUMP JUMPDEST SWAP1 DUP2 MSTORE PUSH1 0x20 ADD PUSH1 0x40 MLOAD DUP1 SWAP2 SUB SWAP1 KECCAK256 PUSH1 0x0 SWAP1 SLOAD SWAP1 PUSH2 0x100 EXP SWAP1 DIV PUSH20 0xFFFFFFFFFFFFFFFFFFFFFFFFFFFFFFFFFFFFFFFF AND PUSH1 0xE PUSH1 0xF PUSH1 0x0 DUP7 DUP2 MSTORE PUSH1 0x20 ADD SWAP1 DUP2 MSTORE PUSH1 0x20 ADD PUSH1 0x0 KECCAK256 PUSH1 0x40 MLOAD PUSH2 0x1498 SWAP2 SWAP1 PUSH2 0x2E96 JUMP JUMPDEST SWAP1 DUP2 MSTORE PUSH1 0x20 ADD PUSH1 0x40 MLOAD DUP1 SWAP2 SUB SWAP1 KECCAK256 PUSH1 0x0 PUSH2 0x100 EXP DUP2 SLOAD DUP2 PUSH20 0xFFFFFFFFFFFFFFFFFFFFFFFFFFFFFFFFFFFFFFFF MUL NOT AND SWAP1 DUP4 PUSH20 0xFFFFFFFFFFFFFFFFFFFFFFFFFFFFFFFFFFFFFFFF AND MUL OR SWAP1 SSTORE POP JUMPDEST PUSH32 0x6B91A47B52A42FF1E60F8AC5EB46B0B5B2B6514B2B3E2400D5822F14AC44DBE5 DUP3 PUSH1 0x40 MLOAD PUSH2 0x1514 SWAP2 SWAP1 PUSH2 0x2FCF JUMP JUMPDEST PUSH1 0x40 MLOAD DUP1 SWAP2 SUB SWAP1 LOG1 POP POP POP JUMP JUMPDEST PUSH1 0x11 PUSH1 0x20 MSTORE DUP1 PUSH1 0x0 MSTORE PUSH1 0x40 PUSH1 0x0 KECCAK256 PUSH1 0x0 SWAP2 POP SWAP1 POP DUP1 SLOAD PUSH2 0x1540 SWAP1 PUSH2 0x35E8 JUMP JUMPDEST DUP1 PUSH1 0x1F ADD PUSH1 0x20 DUP1 SWAP2 DIV MUL PUSH1 0x20 ADD PUSH1 0x40 MLOAD SWAP1 DUP2 ADD PUSH1 0x40 MSTORE DUP1 SWAP3 SWAP2 SWAP1 DUP2 DUP2 MSTORE PUSH1 0x20 ADD DUP3 DUP1 SLOAD PUSH2 0x156C SWAP1 PUSH2 0x35E8 JUMP JUMPDEST DUP1 ISZERO PUSH2 0x15B9 JUMPI DUP1 PUSH1 0x1F LT PUSH2 0x158E JUMPI PUSH2 0x100 DUP1 DUP4 SLOAD DIV MUL DUP4 MSTORE SWAP2 PUSH1 0x20 ADD SWAP2 PUSH2 0x15B9 JUMP JUMPDEST DUP3 ADD SWAP2 SWAP1 PUSH1 0x0 MSTORE PUSH1 0x20 PUSH1 0x0 KECCAK256 SWAP1 JUMPDEST DUP2 SLOAD DUP2 MSTORE SWAP1 PUSH1 0x1 ADD SWAP1 PUSH1 0x20 ADD DUP1 DUP4 GT PUSH2 0x159C JUMPI DUP3 SWAP1 SUB PUSH1 0x1F AND DUP3 ADD SWAP2 JUMPDEST POP POP POP POP POP DUP2 JUMP JUMPDEST DUP2 PUSH1 0x7 PUSH1 0x0 DUP3 DUP2 MSTORE PUSH1 0x20 ADD SWAP1 DUP2 MSTORE PUSH1 0x20 ADD PUSH1 0x0 KECCAK256 PUSH1 0x0 SWAP1 SLOAD SWAP1 PUSH2 0x100 EXP SWAP1 DIV PUSH20 0xFFFFFFFFFFFFFFFFFFFFFFFFFFFFFFFFFFFFFFFF AND PUSH20 0xFFFFFFFFFFFFFFFFFFFFFFFFFFFFFFFFFFFFFFFF AND CALLER PUSH20 0xFFFFFFFFFFFFFFFFFFFFFFFFFFFFFFFFFFFFFFFF AND EQ PUSH2 0x1663 JUMPI PUSH1 0x40 MLOAD PUSH32 0x8C379A000000000000000000000000000000000000000000000000000000000 DUP2 MSTORE PUSH1 0x4 ADD PUSH2 0x165A SWAP1 PUSH2 0x3107 JUMP JUMPDEST PUSH1 0x40 MLOAD DUP1 SWAP2 SUB SWAP1 REVERT JUMPDEST PUSH1 0x7 PUSH1 0x0 DUP3 DUP2 MSTORE PUSH1 0x20 ADD SWAP1 DUP2 MSTORE PUSH1 0x20 ADD PUSH1 0x0 KECCAK256 PUSH1 0x0 PUSH2 0x100 EXP DUP2 SLOAD SWAP1 PUSH20 0xFFFFFFFFFFFFFFFFFFFFFFFFFFFFFFFFFFFFFFFF MUL NOT AND SWAP1 SSTORE DUP1 PUSH32 0x7CC135E0CEBB02C3480AE5D74D377283180A2601F8F644EDF7987B009316C63A PUSH1 0x40 MLOAD PUSH1 0x40 MLOAD DUP1 SWAP2 SUB SWAP1 LOG2 PUSH1 0x1 ISZERO ISZERO DUP3 ISZERO ISZERO EQ ISZERO PUSH2 0x1782 JUMPI PUSH1 0xE PUSH1 0x12 PUSH1 0x0 DUP6 DUP2 MSTORE PUSH1 0x20 ADD SWAP1 DUP2 MSTORE PUSH1 0x20 ADD PUSH1 0x0 KECCAK256 PUSH1 0x40 MLOAD PUSH2 0x16F5 SWAP2 SWAP1 PUSH2 0x2E96 JUMP JUMPDEST SWAP1 DUP2 MSTORE PUSH1 0x20 ADD PUSH1 0x40 MLOAD DUP1 SWAP2 SUB SWAP1 KECCAK256 PUSH1 0x0 SWAP1 SLOAD SWAP1 PUSH2 0x100 EXP SWAP1 DIV PUSH20 0xFFFFFFFFFFFFFFFFFFFFFFFFFFFFFFFFFFFFFFFF AND PUSH20 0xFFFFFFFFFFFFFFFFFFFFFFFFFFFFFFFFFFFFFFFF AND PUSH2 0x8FC PUSH1 0x10 PUSH1 0x0 DUP7 DUP2 MSTORE PUSH1 0x20 ADD SWAP1 DUP2 MSTORE PUSH1 0x20 ADD PUSH1 0x0 KECCAK256 SLOAD SWAP1 DUP2 ISZERO MUL SWAP1 PUSH1 0x40 MLOAD PUSH1 0x0 PUSH1 0x40 MLOAD DUP1 DUP4 SUB DUP2 DUP6 DUP9 DUP9 CALL SWAP4 POP POP POP POP ISZERO DUP1 ISZERO PUSH2 0x177C JUMPI RETURNDATASIZE PUSH1 0x0 DUP1 RETURNDATACOPY RETURNDATASIZE PUSH1 0x0 REVERT JUMPDEST POP PUSH2 0x182D JUMP JUMPDEST PUSH1 0xE PUSH1 0x11 PUSH1 0x0 DUP6 DUP2 MSTORE PUSH1 0x20 ADD SWAP1 DUP2 MSTORE PUSH1 0x20 ADD PUSH1 0x0 KECCAK256 PUSH1 0x40 MLOAD PUSH2 0x17A4 SWAP2 SWAP1 PUSH2 0x2E96 JUMP JUMPDEST SWAP1 DUP2 MSTORE PUSH1 0x20 ADD PUSH1 0x40 MLOAD DUP1 SWAP2 SUB SWAP1 KECCAK256 PUSH1 0x0 SWAP1 SLOAD SWAP1 PUSH2 0x100 EXP SWAP1 DIV PUSH20 0xFFFFFFFFFFFFFFFFFFFFFFFFFFFFFFFFFFFFFFFF AND PUSH20 0xFFFFFFFFFFFFFFFFFFFFFFFFFFFFFFFFFFFFFFFF AND PUSH2 0x8FC PUSH1 0x10 PUSH1 0x0 DUP7 DUP2 MSTORE PUSH1 0x20 ADD SWAP1 DUP2 MSTORE PUSH1 0x20 ADD PUSH1 0x0 KECCAK256 SLOAD SWAP1 DUP2 ISZERO MUL SWAP1 PUSH1 0x40 MLOAD PUSH1 0x0 PUSH1 0x40 MLOAD DUP1 DUP4 SUB DUP2 DUP6 DUP9 DUP9 CALL SWAP4 POP POP POP POP ISZERO DUP1 ISZERO PUSH2 0x182B JUMPI RETURNDATASIZE PUSH1 0x0 DUP1 RETURNDATACOPY RETURNDATASIZE PUSH1 0x0 REVERT JUMPDEST POP JUMPDEST POP POP POP JUMP JUMPDEST PUSH1 0x0 CALLER SWAP1 POP SWAP1 JUMP JUMPDEST PUSH2 0x1842 PUSH2 0x7A5 JUMP JUMPDEST PUSH2 0x1881 JUMPI PUSH1 0x40 MLOAD PUSH32 0x8C379A000000000000000000000000000000000000000000000000000000000 DUP2 MSTORE PUSH1 0x4 ADD PUSH2 0x1878 SWAP1 PUSH2 0x3047 JUMP JUMPDEST PUSH1 0x40 MLOAD DUP1 SWAP2 SUB SWAP1 REVERT JUMPDEST PUSH1 0x0 PUSH1 0x2 PUSH1 0x0 PUSH2 0x100 EXP DUP2 SLOAD DUP2 PUSH1 0xFF MUL NOT AND SWAP1 DUP4 ISZERO ISZERO MUL OR SWAP1 SSTORE POP PUSH32 0x5DB9EE0A495BF2E6FF9C91A7834C1BA4FDD244A5E8AA4E537BD38AEAE4B073AA PUSH2 0x18C5 PUSH2 0x1832 JUMP JUMPDEST PUSH1 0x40 MLOAD PUSH2 0x18D2 SWAP2 SWAP1 PUSH2 0x2EAD JUMP JUMPDEST PUSH1 0x40 MLOAD DUP1 SWAP2 SUB SWAP1 LOG1 JUMP JUMPDEST PUSH1 0x0 DUP1 PUSH1 0x0 SWAP1 SLOAD SWAP1 PUSH2 0x100 EXP SWAP1 DIV PUSH20 0xFFFFFFFFFFFFFFFFFFFFFFFFFFFFFFFFFFFFFFFF AND SWAP1 POP DUP2 PUSH1 0x0 DUP1 PUSH2 0x100 EXP DUP2 SLOAD DUP2 PUSH20 0xFFFFFFFFFFFFFFFFFFFFFFFFFFFFFFFFFFFFFFFF MUL NOT AND SWAP1 DUP4 PUSH20 0xFFFFFFFFFFFFFFFFFFFFFFFFFFFFFFFFFFFFFFFF AND MUL OR SWAP1 SSTORE POP DUP2 PUSH20 0xFFFFFFFFFFFFFFFFFFFFFFFFFFFFFFFFFFFFFFFF AND DUP2 PUSH20 0xFFFFFFFFFFFFFFFFFFFFFFFFFFFFFFFFFFFFFFFF AND PUSH32 0x8BE0079C531659141344CD1FD0A4F28419497F9722A3DAAFE3B4186F6B6457E0 PUSH1 0x40 MLOAD PUSH1 0x40 MLOAD DUP1 SWAP2 SUB SWAP1 LOG3 POP POP JUMP JUMPDEST PUSH2 0x19A8 PUSH2 0x7A5 JUMP JUMPDEST ISZERO PUSH2 0x19E8 JUMPI PUSH1 0x40 MLOAD PUSH32 0x8C379A000000000000000000000000000000000000000000000000000000000 DUP2 MSTORE PUSH1 0x4 ADD PUSH2 0x19DF SWAP1 PUSH2 0x30A7 JUMP JUMPDEST PUSH1 0x40 MLOAD DUP1 SWAP2 SUB SWAP1 REVERT JUMPDEST PUSH1 0x1 PUSH1 0x2 PUSH1 0x0 PUSH2 0x100 EXP DUP2 SLOAD DUP2 PUSH1 0xFF MUL NOT AND SWAP1 DUP4 ISZERO ISZERO MUL OR SWAP1 SSTORE POP PUSH32 0x62E78CEA01BEE320CD4E420270B5EA74000D11B0C9F74754EBDBFC544B05A258 PUSH2 0x1A2C PUSH2 0x1832 JUMP JUMPDEST PUSH1 0x40 MLOAD PUSH2 0x1A39 SWAP2 SWAP1 PUSH2 0x2EAD JUMP JUMPDEST PUSH1 0x40 MLOAD DUP1 SWAP2 SUB SWAP1 LOG1 JUMP JUMPDEST PUSH1 0x0 PUSH1 0x4 PUSH1 0x0 SWAP1 SLOAD SWAP1 PUSH2 0x100 EXP SWAP1 DIV PUSH20 0xFFFFFFFFFFFFFFFFFFFFFFFFFFFFFFFFFFFFFFFF AND SWAP1 POP SWAP1 JUMP JUMPDEST PUSH2 0x1A75 PUSH2 0x26D7 JUMP JUMPDEST PUSH2 0x1A7D PUSH2 0x26D7 JUMP JUMPDEST PUSH2 0x1A94 DUP6 DUP6 DUP6 DUP5 PUSH2 0x1EA5 SWAP1 SWAP4 SWAP3 SWAP2 SWAP1 PUSH4 0xFFFFFFFF AND JUMP JUMPDEST SWAP2 POP POP SWAP4 SWAP3 POP POP POP JUMP JUMPDEST PUSH2 0x1AB5 DUP3 DUP5 PUSH1 0x80 ADD MLOAD PUSH2 0x1F55 SWAP1 SWAP2 SWAP1 PUSH4 0xFFFFFFFF AND JUMP JUMPDEST PUSH2 0x1ACC DUP2 DUP5 PUSH1 0x80 ADD MLOAD PUSH2 0x1F55 SWAP1 SWAP2 SWAP1 PUSH4 0xFFFFFFFF AND JUMP JUMPDEST POP POP POP JUMP JUMPDEST PUSH1 0x60 PUSH1 0x0 DUP3 EQ ISZERO PUSH2 0x1B19 JUMPI PUSH1 0x40 MLOAD DUP1 PUSH1 0x40 ADD PUSH1 0x40 MSTORE DUP1 PUSH1 0x1 DUP2 MSTORE PUSH1 0x20 ADD PUSH32 0x3000000000000000000000000000000000000000000000000000000000000000 DUP2 MSTORE POP SWAP1 POP PUSH2 0x1C2D JUMP JUMPDEST PUSH1 0x0 DUP3 SWAP1 POP PUSH1 0x0 JUMPDEST PUSH1 0x0 DUP3 EQ PUSH2 0x1B4B JUMPI DUP1 DUP1 PUSH2 0x1B34 SWAP1 PUSH2 0x364B JUMP JUMPDEST SWAP2 POP POP PUSH1 0xA DUP3 PUSH2 0x1B44 SWAP2 SWAP1 PUSH2 0x3266 JUMP JUMPDEST SWAP2 POP PUSH2 0x1B21 JUMP JUMPDEST PUSH1 0x0 DUP2 PUSH8 0xFFFFFFFFFFFFFFFF DUP2 GT ISZERO PUSH2 0x1B67 JUMPI PUSH2 0x1B66 PUSH2 0x37AF JUMP JUMPDEST JUMPDEST PUSH1 0x40 MLOAD SWAP1 DUP1 DUP3 MSTORE DUP1 PUSH1 0x1F ADD PUSH1 0x1F NOT AND PUSH1 0x20 ADD DUP3 ADD PUSH1 0x40 MSTORE DUP1 ISZERO PUSH2 0x1B99 JUMPI DUP2 PUSH1 0x20 ADD PUSH1 0x1 DUP3 MUL DUP1 CALLDATASIZE DUP4 CALLDATACOPY DUP1 DUP3 ADD SWAP2 POP POP SWAP1 POP JUMPDEST POP SWAP1 POP JUMPDEST PUSH1 0x0 DUP6 EQ PUSH2 0x1C26 JUMPI PUSH1 0x1 DUP3 PUSH2 0x1BB2 SWAP2 SWAP1 PUSH2 0x3462 JUMP JUMPDEST SWAP2 POP PUSH1 0xA DUP6 PUSH2 0x1BC1 SWAP2 SWAP1 PUSH2 0x36C2 JUMP JUMPDEST PUSH1 0x30 PUSH2 0x1BCD SWAP2 SWAP1 PUSH2 0x3210 JUMP JUMPDEST PUSH1 0xF8 SHL DUP2 DUP4 DUP2 MLOAD DUP2 LT PUSH2 0x1BE3 JUMPI PUSH2 0x1BE2 PUSH2 0x3780 JUMP JUMPDEST JUMPDEST PUSH1 0x20 ADD ADD SWAP1 PUSH31 0xFFFFFFFFFFFFFFFFFFFFFFFFFFFFFFFFFFFFFFFFFFFFFFFFFFFFFFFFFFFFFF NOT AND SWAP1 DUP2 PUSH1 0x0 BYTE SWAP1 MSTORE8 POP PUSH1 0xA DUP6 PUSH2 0x1C1F SWAP2 SWAP1 PUSH2 0x3266 JUMP JUMPDEST SWAP5 POP PUSH2 0x1B9D JUMP JUMPDEST DUP1 SWAP4 POP POP POP POP JUMPDEST SWAP2 SWAP1 POP JUMP JUMPDEST PUSH1 0x0 PUSH2 0x1C61 PUSH1 0x5 PUSH1 0x0 SWAP1 SLOAD SWAP1 PUSH2 0x100 EXP SWAP1 DIV PUSH20 0xFFFFFFFFFFFFFFFFFFFFFFFFFFFFFFFFFFFFFFFF AND DUP5 DUP5 PUSH2 0x1F7A JUMP JUMPDEST SWAP1 POP SWAP3 SWAP2 POP POP JUMP JUMPDEST PUSH1 0x60 PUSH1 0x0 PUSH1 0x2 DUP4 PUSH1 0x2 PUSH2 0x1C7C SWAP2 SWAP1 PUSH2 0x3408 JUMP JUMPDEST PUSH2 0x1C86 SWAP2 SWAP1 PUSH2 0x3210 JUMP JUMPDEST PUSH8 0xFFFFFFFFFFFFFFFF DUP2 GT ISZERO PUSH2 0x1C9F JUMPI PUSH2 0x1C9E PUSH2 0x37AF JUMP JUMPDEST JUMPDEST PUSH1 0x40 MLOAD SWAP1 DUP1 DUP3 MSTORE DUP1 PUSH1 0x1F ADD PUSH1 0x1F NOT AND PUSH1 0x20 ADD DUP3 ADD PUSH1 0x40 MSTORE DUP1 ISZERO PUSH2 0x1CD1 JUMPI DUP2 PUSH1 0x20 ADD PUSH1 0x1 DUP3 MUL DUP1 CALLDATASIZE DUP4 CALLDATACOPY DUP1 DUP3 ADD SWAP2 POP POP SWAP1 POP JUMPDEST POP SWAP1 POP PUSH32 0x3000000000000000000000000000000000000000000000000000000000000000 DUP2 PUSH1 0x0 DUP2 MLOAD DUP2 LT PUSH2 0x1D09 JUMPI PUSH2 0x1D08 PUSH2 0x3780 JUMP JUMPDEST JUMPDEST PUSH1 0x20 ADD ADD SWAP1 PUSH31 0xFFFFFFFFFFFFFFFFFFFFFFFFFFFFFFFFFFFFFFFFFFFFFFFFFFFFFFFFFFFFFF NOT AND SWAP1 DUP2 PUSH1 0x0 BYTE SWAP1 MSTORE8 POP PUSH32 0x7800000000000000000000000000000000000000000000000000000000000000 DUP2 PUSH1 0x1 DUP2 MLOAD DUP2 LT PUSH2 0x1D6D JUMPI PUSH2 0x1D6C PUSH2 0x3780 JUMP JUMPDEST JUMPDEST PUSH1 0x20 ADD ADD SWAP1 PUSH31 0xFFFFFFFFFFFFFFFFFFFFFFFFFFFFFFFFFFFFFFFFFFFFFFFFFFFFFFFFFFFFFF NOT AND SWAP1 DUP2 PUSH1 0x0 BYTE SWAP1 MSTORE8 POP PUSH1 0x0 PUSH1 0x1 DUP5 PUSH1 0x2 PUSH2 0x1DAD SWAP2 SWAP1 PUSH2 0x3408 JUMP JUMPDEST PUSH2 0x1DB7 SWAP2 SWAP1 PUSH2 0x3210 JUMP JUMPDEST SWAP1 POP JUMPDEST PUSH1 0x1 DUP2 GT ISZERO PUSH2 0x1E57 JUMPI PUSH32 0x3031323334353637383961626364656600000000000000000000000000000000 PUSH1 0xF DUP7 AND PUSH1 0x10 DUP2 LT PUSH2 0x1DF9 JUMPI PUSH2 0x1DF8 PUSH2 0x3780 JUMP JUMPDEST JUMPDEST BYTE PUSH1 0xF8 SHL DUP3 DUP3 DUP2 MLOAD DUP2 LT PUSH2 0x1E10 JUMPI PUSH2 0x1E0F PUSH2 0x3780 JUMP JUMPDEST JUMPDEST PUSH1 0x20 ADD ADD SWAP1 PUSH31 0xFFFFFFFFFFFFFFFFFFFFFFFFFFFFFFFFFFFFFFFFFFFFFFFFFFFFFFFFFFFFFF NOT AND SWAP1 DUP2 PUSH1 0x0 BYTE SWAP1 MSTORE8 POP PUSH1 0x4 DUP6 SWAP1 SHR SWAP5 POP DUP1 PUSH2 0x1E50 SWAP1 PUSH2 0x35BE JUMP JUMPDEST SWAP1 POP PUSH2 0x1DBA JUMP JUMPDEST POP PUSH1 0x0 DUP5 EQ PUSH2 0x1E9B JUMPI PUSH1 0x40 MLOAD PUSH32 0x8C379A000000000000000000000000000000000000000000000000000000000 DUP2 MSTORE PUSH1 0x4 ADD PUSH2 0x1E92 SWAP1 PUSH2 0x3027 JUMP JUMPDEST PUSH1 0x40 MLOAD DUP1 SWAP2 SUB SWAP1 REVERT JUMPDEST DUP1 SWAP2 POP POP SWAP3 SWAP2 POP POP JUMP JUMPDEST PUSH2 0x1EAD PUSH2 0x26D7 JUMP JUMPDEST PUSH2 0x1EBD DUP6 PUSH1 0x80 ADD MLOAD PUSH2 0x100 PUSH2 0x2046 JUMP JUMPDEST POP DUP4 DUP6 PUSH1 0x0 ADD DUP2 DUP2 MSTORE POP POP DUP3 DUP6 PUSH1 0x20 ADD SWAP1 PUSH20 0xFFFFFFFFFFFFFFFFFFFFFFFFFFFFFFFFFFFFFFFF AND SWAP1 DUP2 PUSH20 0xFFFFFFFFFFFFFFFFFFFFFFFFFFFFFFFFFFFFFFFF AND DUP2 MSTORE POP POP DUP2 DUP6 PUSH1 0x40 ADD SWAP1 PUSH28 0xFFFFFFFFFFFFFFFFFFFFFFFFFFFFFFFFFFFFFFFFFFFFFFFFFFFFFFFF NOT AND SWAP1 DUP2 PUSH28 0xFFFFFFFFFFFFFFFFFFFFFFFFFFFFFFFFFFFFFFFFFFFFFFFFFFFFFFFF NOT AND DUP2 MSTORE POP POP DUP5 SWAP1 POP SWAP5 SWAP4 POP POP POP POP JUMP JUMPDEST PUSH2 0x1F62 DUP3 PUSH1 0x3 DUP4 MLOAD PUSH2 0x20B0 JUMP JUMPDEST PUSH2 0x1F75 DUP2 DUP4 PUSH2 0x2235 SWAP1 SWAP2 SWAP1 PUSH4 0xFFFFFFFF AND JUMP JUMPDEST POP POP POP JUMP JUMPDEST PUSH1 0x0 DUP1 PUSH1 0x6 SLOAD SWAP1 POP PUSH1 0x1 DUP2 PUSH2 0x1F8F SWAP2 SWAP1 PUSH2 0x3210 JUMP JUMPDEST PUSH1 0x6 DUP2 SWAP1 SSTORE POP PUSH1 0x0 PUSH4 0x40429946 PUSH1 0xE0 SHL PUSH1 0x0 DUP1 DUP8 PUSH1 0x0 ADD MLOAD ADDRESS DUP10 PUSH1 0x40 ADD MLOAD DUP8 PUSH1 0x1 DUP13 PUSH1 0x80 ADD MLOAD PUSH1 0x0 ADD MLOAD PUSH1 0x40 MLOAD PUSH1 0x24 ADD PUSH2 0x1FD0 SWAP9 SWAP8 SWAP7 SWAP6 SWAP5 SWAP4 SWAP3 SWAP2 SWAP1 PUSH2 0x2F0C JUMP JUMPDEST PUSH1 0x40 MLOAD PUSH1 0x20 DUP2 DUP4 SUB SUB DUP2 MSTORE SWAP1 PUSH1 0x40 MSTORE SWAP1 PUSH28 0xFFFFFFFFFFFFFFFFFFFFFFFFFFFFFFFFFFFFFFFFFFFFFFFFFFFFFFFF NOT AND PUSH1 0x20 DUP3 ADD DUP1 MLOAD PUSH28 0xFFFFFFFFFFFFFFFFFFFFFFFFFFFFFFFFFFFFFFFFFFFFFFFFFFFFFFFF DUP4 DUP2 DUP4 AND OR DUP4 MSTORE POP POP POP POP SWAP1 POP PUSH2 0x203B DUP7 DUP4 DUP7 DUP5 PUSH2 0x2257 JUMP JUMPDEST SWAP3 POP POP POP SWAP4 SWAP3 POP POP POP JUMP JUMPDEST PUSH2 0x204E PUSH2 0x2744 JUMP JUMPDEST PUSH1 0x0 PUSH1 0x20 DUP4 PUSH2 0x205D SWAP2 SWAP1 PUSH2 0x36C2 JUMP JUMPDEST EQ PUSH2 0x2089 JUMPI PUSH1 0x20 DUP3 PUSH2 0x206F SWAP2 SWAP1 PUSH2 0x36C2 JUMP JUMPDEST PUSH1 0x20 PUSH2 0x207B SWAP2 SWAP1 PUSH2 0x3462 JUMP JUMPDEST DUP3 PUSH2 0x2086 SWAP2 SWAP1 PUSH2 0x3210 JUMP JUMPDEST SWAP2 POP JUMPDEST DUP2 DUP4 PUSH1 0x20 ADD DUP2 DUP2 MSTORE POP POP PUSH1 0x40 MLOAD DUP1 DUP5 MSTORE PUSH1 0x0 DUP2 MSTORE DUP3 DUP2 ADD PUSH1 0x20 ADD PUSH1 0x40 MSTORE POP DUP3 SWAP1 POP SWAP3 SWAP2 POP POP JUMP JUMPDEST PUSH1 0x17 DUP2 PUSH8 0xFFFFFFFFFFFFFFFF AND GT PUSH2 0x20E7 JUMPI PUSH2 0x20E1 DUP2 PUSH1 0x5 DUP5 PUSH1 0xFF AND SWAP1 SHL PUSH1 0xFF AND OR DUP5 PUSH2 0x23FB SWAP1 SWAP2 SWAP1 PUSH4 0xFFFFFFFF AND JUMP JUMPDEST POP PUSH2 0x2230 JUMP JUMPDEST PUSH1 0xFF DUP2 PUSH8 0xFFFFFFFFFFFFFFFF AND GT PUSH2 0x213D JUMPI PUSH2 0x2116 PUSH1 0x18 PUSH1 0x5 DUP5 PUSH1 0xFF AND SWAP1 SHL OR DUP5 PUSH2 0x23FB SWAP1 SWAP2 SWAP1 PUSH4 0xFFFFFFFF AND JUMP JUMPDEST POP PUSH2 0x2137 DUP2 PUSH8 0xFFFFFFFFFFFFFFFF AND PUSH1 0x1 DUP6 PUSH2 0x241B SWAP1 SWAP3 SWAP2 SWAP1 PUSH4 0xFFFFFFFF AND JUMP JUMPDEST POP PUSH2 0x222F JUMP JUMPDEST PUSH2 0xFFFF DUP2 PUSH8 0xFFFFFFFFFFFFFFFF AND GT PUSH2 0x2194 JUMPI PUSH2 0x216D PUSH1 0x19 PUSH1 0x5 DUP5 PUSH1 0xFF AND SWAP1 SHL OR DUP5 PUSH2 0x23FB SWAP1 SWAP2 SWAP1 PUSH4 0xFFFFFFFF AND JUMP JUMPDEST POP PUSH2 0x218E DUP2 PUSH8 0xFFFFFFFFFFFFFFFF AND PUSH1 0x2 DUP6 PUSH2 0x241B SWAP1 SWAP3 SWAP2 SWAP1 PUSH4 0xFFFFFFFF AND JUMP JUMPDEST POP PUSH2 0x222E JUMP JUMPDEST PUSH4 0xFFFFFFFF DUP2 PUSH8 0xFFFFFFFFFFFFFFFF AND GT PUSH2 0x21ED JUMPI PUSH2 0x21C6 PUSH1 0x1A PUSH1 0x5 DUP5 PUSH1 0xFF AND SWAP1 SHL OR DUP5 PUSH2 0x23FB SWAP1 SWAP2 SWAP1 PUSH4 0xFFFFFFFF AND JUMP JUMPDEST POP PUSH2 0x21E7 DUP2 PUSH8 0xFFFFFFFFFFFFFFFF AND PUSH1 0x4 DUP6 PUSH2 0x241B SWAP1 SWAP3 SWAP2 SWAP1 PUSH4 0xFFFFFFFF AND JUMP JUMPDEST POP PUSH2 0x222D JUMP JUMPDEST PUSH2 0x220A PUSH1 0x1B PUSH1 0x5 DUP5 PUSH1 0xFF AND SWAP1 SHL OR DUP5 PUSH2 0x23FB SWAP1 SWAP2 SWAP1 PUSH4 0xFFFFFFFF AND JUMP JUMPDEST POP PUSH2 0x222B DUP2 PUSH8 0xFFFFFFFFFFFFFFFF AND PUSH1 0x8 DUP6 PUSH2 0x241B SWAP1 SWAP3 SWAP2 SWAP1 PUSH4 0xFFFFFFFF AND JUMP JUMPDEST POP JUMPDEST JUMPDEST JUMPDEST JUMPDEST POP POP POP JUMP JUMPDEST PUSH2 0x223D PUSH2 0x2744 JUMP JUMPDEST PUSH2 0x224F DUP4 DUP5 PUSH1 0x0 ADD MLOAD MLOAD DUP5 DUP6 MLOAD PUSH2 0x243D JUMP JUMPDEST SWAP1 POP SWAP3 SWAP2 POP POP JUMP JUMPDEST PUSH1 0x0 ADDRESS DUP5 PUSH1 0x40 MLOAD PUSH1 0x20 ADD PUSH2 0x226C SWAP3 SWAP2 SWAP1 PUSH2 0x2E53 JUMP JUMPDEST PUSH1 0x40 MLOAD PUSH1 0x20 DUP2 DUP4 SUB SUB DUP2 MSTORE SWAP1 PUSH1 0x40 MSTORE DUP1 MLOAD SWAP1 PUSH1 0x20 ADD KECCAK256 SWAP1 POP DUP5 PUSH1 0x7 PUSH1 0x0 DUP4 DUP2 MSTORE PUSH1 0x20 ADD SWAP1 DUP2 MSTORE PUSH1 0x20 ADD PUSH1 0x0 KECCAK256 PUSH1 0x0 PUSH2 0x100 EXP DUP2 SLOAD DUP2 PUSH20 0xFFFFFFFFFFFFFFFFFFFFFFFFFFFFFFFFFFFFFFFF MUL NOT AND SWAP1 DUP4 PUSH20 0xFFFFFFFFFFFFFFFFFFFFFFFFFFFFFFFFFFFFFFFF AND MUL OR SWAP1 SSTORE POP DUP1 PUSH32 0xB5E6E01E79F91267DC17B4E6314D5D4D03593D2CEEE0FBB452B750BD70EA5AF9 PUSH1 0x40 MLOAD PUSH1 0x40 MLOAD DUP1 SWAP2 SUB SWAP1 LOG2 PUSH1 0x4 PUSH1 0x0 SWAP1 SLOAD SWAP1 PUSH2 0x100 EXP SWAP1 DIV PUSH20 0xFFFFFFFFFFFFFFFFFFFFFFFFFFFFFFFFFFFFFFFF AND PUSH20 0xFFFFFFFFFFFFFFFFFFFFFFFFFFFFFFFFFFFFFFFF AND PUSH4 0x4000AEA0 DUP7 DUP6 DUP6 PUSH1 0x40 MLOAD DUP5 PUSH4 0xFFFFFFFF AND PUSH1 0xE0 SHL DUP2 MSTORE PUSH1 0x4 ADD PUSH2 0x2362 SWAP4 SWAP3 SWAP2 SWAP1 PUSH2 0x2F91 JUMP JUMPDEST PUSH1 0x20 PUSH1 0x40 MLOAD DUP1 DUP4 SUB DUP2 PUSH1 0x0 DUP8 DUP1 EXTCODESIZE ISZERO DUP1 ISZERO PUSH2 0x237C JUMPI PUSH1 0x0 DUP1 REVERT JUMPDEST POP GAS CALL ISZERO DUP1 ISZERO PUSH2 0x2390 JUMPI RETURNDATASIZE PUSH1 0x0 DUP1 RETURNDATACOPY RETURNDATASIZE PUSH1 0x0 REVERT JUMPDEST POP POP POP POP PUSH1 0x40 MLOAD RETURNDATASIZE PUSH1 0x1F NOT PUSH1 0x1F DUP3 ADD AND DUP3 ADD DUP1 PUSH1 0x40 MSTORE POP DUP2 ADD SWAP1 PUSH2 0x23B4 SWAP2 SWAP1 PUSH2 0x28C0 JUMP JUMPDEST PUSH2 0x23F3 JUMPI PUSH1 0x40 MLOAD PUSH32 0x8C379A000000000000000000000000000000000000000000000000000000000 DUP2 MSTORE PUSH1 0x4 ADD PUSH2 0x23EA SWAP1 PUSH2 0x3087 JUMP JUMPDEST PUSH1 0x40 MLOAD DUP1 SWAP2 SUB SWAP1 REVERT JUMPDEST SWAP5 SWAP4 POP POP POP POP JUMP JUMPDEST PUSH2 0x2403 PUSH2 0x2744 JUMP JUMPDEST PUSH2 0x2413 DUP4 DUP5 PUSH1 0x0 ADD MLOAD MLOAD DUP5 PUSH2 0x252C JUMP JUMPDEST SWAP1 POP SWAP3 SWAP2 POP POP JUMP JUMPDEST PUSH2 0x2423 PUSH2 0x2744 JUMP JUMPDEST PUSH2 0x2434 DUP5 DUP6 PUSH1 0x0 ADD MLOAD MLOAD DUP6 DUP6 PUSH2 0x2583 JUMP JUMPDEST SWAP1 POP SWAP4 SWAP3 POP POP POP JUMP JUMPDEST PUSH2 0x2445 PUSH2 0x2744 JUMP JUMPDEST DUP3 MLOAD DUP3 GT ISZERO PUSH2 0x2453 JUMPI PUSH1 0x0 DUP1 REVERT JUMPDEST DUP5 PUSH1 0x20 ADD MLOAD DUP3 DUP6 PUSH2 0x2464 SWAP2 SWAP1 PUSH2 0x3210 JUMP JUMPDEST GT ISZERO PUSH2 0x2499 JUMPI PUSH2 0x2498 DUP6 PUSH1 0x2 PUSH2 0x2489 DUP9 PUSH1 0x20 ADD MLOAD DUP9 DUP8 PUSH2 0x2484 SWAP2 SWAP1 PUSH2 0x3210 JUMP JUMPDEST PUSH2 0x2611 JUMP JUMPDEST PUSH2 0x2493 SWAP2 SWAP1 PUSH2 0x3408 JUMP JUMPDEST PUSH2 0x262D JUMP JUMPDEST JUMPDEST PUSH1 0x0 DUP1 DUP7 MLOAD DUP1 MLOAD DUP8 PUSH1 0x20 DUP4 ADD ADD SWAP4 POP DUP1 DUP9 DUP8 ADD GT ISZERO PUSH2 0x24B8 JUMPI DUP8 DUP7 ADD DUP3 MSTORE JUMPDEST PUSH1 0x20 DUP8 ADD SWAP3 POP POP POP JUMPDEST PUSH1 0x20 DUP5 LT PUSH2 0x24FF JUMPI DUP1 MLOAD DUP3 MSTORE PUSH1 0x20 DUP3 PUSH2 0x24DA SWAP2 SWAP1 PUSH2 0x3210 JUMP JUMPDEST SWAP2 POP PUSH1 0x20 DUP2 PUSH2 0x24E9 SWAP2 SWAP1 PUSH2 0x3210 JUMP JUMPDEST SWAP1 POP PUSH1 0x20 DUP5 PUSH2 0x24F8 SWAP2 SWAP1 PUSH2 0x3462 JUMP JUMPDEST SWAP4 POP PUSH2 0x24C1 JUMP JUMPDEST PUSH1 0x0 PUSH1 0x1 DUP6 PUSH1 0x20 SUB PUSH2 0x100 EXP SUB SWAP1 POP DUP1 NOT DUP3 MLOAD AND DUP2 DUP5 MLOAD AND DUP2 DUP2 OR DUP6 MSTORE POP POP POP DUP7 SWAP3 POP POP POP SWAP5 SWAP4 POP POP POP POP JUMP JUMPDEST PUSH2 0x2534 PUSH2 0x2744 JUMP JUMPDEST DUP4 PUSH1 0x20 ADD MLOAD DUP4 LT PUSH2 0x255A JUMPI PUSH2 0x2559 DUP5 PUSH1 0x2 DUP7 PUSH1 0x20 ADD MLOAD PUSH2 0x2554 SWAP2 SWAP1 PUSH2 0x3408 JUMP JUMPDEST PUSH2 0x262D JUMP JUMPDEST JUMPDEST DUP4 MLOAD DUP1 MLOAD PUSH1 0x20 DUP6 DUP4 ADD ADD DUP5 DUP2 MSTORE8 DUP2 DUP7 EQ ISZERO PUSH2 0x2576 JUMPI PUSH1 0x1 DUP3 ADD DUP4 MSTORE JUMPDEST POP POP POP DUP4 SWAP1 POP SWAP4 SWAP3 POP POP POP JUMP JUMPDEST PUSH2 0x258B PUSH2 0x2744 JUMP JUMPDEST DUP5 PUSH1 0x20 ADD MLOAD DUP5 DUP4 PUSH2 0x259C SWAP2 SWAP1 PUSH2 0x3210 JUMP JUMPDEST GT ISZERO PUSH2 0x25C4 JUMPI PUSH2 0x25C3 DUP6 PUSH1 0x2 DUP7 DUP6 PUSH2 0x25B4 SWAP2 SWAP1 PUSH2 0x3210 JUMP JUMPDEST PUSH2 0x25BE SWAP2 SWAP1 PUSH2 0x3408 JUMP JUMPDEST PUSH2 0x262D JUMP JUMPDEST JUMPDEST PUSH1 0x0 PUSH1 0x1 DUP4 PUSH2 0x100 PUSH2 0x25D6 SWAP2 SWAP1 PUSH2 0x32EA JUMP JUMPDEST PUSH2 0x25E0 SWAP2 SWAP1 PUSH2 0x3462 JUMP JUMPDEST SWAP1 POP DUP6 MLOAD DUP4 DUP7 DUP3 ADD ADD DUP6 DUP4 NOT DUP3 MLOAD AND OR DUP2 MSTORE DUP2 MLOAD DUP6 DUP9 ADD GT ISZERO PUSH2 0x2603 JUMPI DUP5 DUP8 ADD DUP3 MSTORE JUMPDEST POP POP DUP6 SWAP2 POP POP SWAP5 SWAP4 POP POP POP POP JUMP JUMPDEST PUSH1 0x0 DUP2 DUP4 GT ISZERO PUSH2 0x2623 JUMPI DUP3 SWAP1 POP PUSH2 0x2627 JUMP JUMPDEST DUP2 SWAP1 POP JUMPDEST SWAP3 SWAP2 POP POP JUMP JUMPDEST PUSH1 0x0 DUP3 PUSH1 0x0 ADD MLOAD SWAP1 POP PUSH2 0x2640 DUP4 DUP4 PUSH2 0x2046 JUMP JUMPDEST POP PUSH2 0x264B DUP4 DUP3 PUSH2 0x2235 JUMP JUMPDEST POP POP POP POP JUMP JUMPDEST DUP3 DUP1 SLOAD PUSH2 0x265D SWAP1 PUSH2 0x35E8 JUMP JUMPDEST SWAP1 PUSH1 0x0 MSTORE PUSH1 0x20 PUSH1 0x0 KECCAK256 SWAP1 PUSH1 0x1F ADD PUSH1 0x20 SWAP1 DIV DUP2 ADD SWAP3 DUP3 PUSH2 0x267F JUMPI PUSH1 0x0 DUP6 SSTORE PUSH2 0x26C6 JUMP JUMPDEST DUP3 PUSH1 0x1F LT PUSH2 0x2698 JUMPI DUP1 MLOAD PUSH1 0xFF NOT AND DUP4 DUP1 ADD OR DUP6 SSTORE PUSH2 0x26C6 JUMP JUMPDEST DUP3 DUP1 ADD PUSH1 0x1 ADD DUP6 SSTORE DUP3 ISZERO PUSH2 0x26C6 JUMPI SWAP2 DUP3 ADD JUMPDEST DUP3 DUP2 GT ISZERO PUSH2 0x26C5 JUMPI DUP3 MLOAD DUP3 SSTORE SWAP2 PUSH1 0x20 ADD SWAP2 SWAP1 PUSH1 0x1 ADD SWAP1 PUSH2 0x26AA JUMP JUMPDEST JUMPDEST POP SWAP1 POP PUSH2 0x26D3 SWAP2 SWAP1 PUSH2 0x275E JUMP JUMPDEST POP SWAP1 JUMP JUMPDEST PUSH1 0x40 MLOAD DUP1 PUSH1 0xA0 ADD PUSH1 0x40 MSTORE DUP1 PUSH1 0x0 DUP1 NOT AND DUP2 MSTORE PUSH1 0x20 ADD PUSH1 0x0 PUSH20 0xFFFFFFFFFFFFFFFFFFFFFFFFFFFFFFFFFFFFFFFF AND DUP2 MSTORE PUSH1 0x20 ADD PUSH1 0x0 PUSH28 0xFFFFFFFFFFFFFFFFFFFFFFFFFFFFFFFFFFFFFFFFFFFFFFFFFFFFFFFF NOT AND DUP2 MSTORE PUSH1 0x20 ADD PUSH1 0x0 DUP2 MSTORE PUSH1 0x20 ADD PUSH2 0x273E PUSH2 0x2744 JUMP JUMPDEST DUP2 MSTORE POP SWAP1 JUMP JUMPDEST PUSH1 0x40 MLOAD DUP1 PUSH1 0x40 ADD PUSH1 0x40 MSTORE DUP1 PUSH1 0x60 DUP2 MSTORE PUSH1 0x20 ADD PUSH1 0x0 DUP2 MSTORE POP SWAP1 JUMP JUMPDEST JUMPDEST DUP1 DUP3 GT ISZERO PUSH2 0x2777 JUMPI PUSH1 0x0 DUP2 PUSH1 0x0 SWAP1 SSTORE POP PUSH1 0x1 ADD PUSH2 0x275F JUMP JUMPDEST POP SWAP1 JUMP JUMPDEST PUSH1 0x0 PUSH2 0x278E PUSH2 0x2789 DUP5 PUSH2 0x3187 JUMP JUMPDEST PUSH2 0x3162 JUMP JUMPDEST SWAP1 POP DUP3 DUP2 MSTORE PUSH1 0x20 DUP2 ADD DUP5 DUP5 DUP5 ADD GT ISZERO PUSH2 0x27AA JUMPI PUSH2 0x27A9 PUSH2 0x37E3 JUMP JUMPDEST JUMPDEST PUSH2 0x27B5 DUP5 DUP3 DUP6 PUSH2 0x357C JUMP JUMPDEST POP SWAP4 SWAP3 POP POP POP JUMP JUMPDEST PUSH1 0x0 DUP2 CALLDATALOAD SWAP1 POP PUSH2 0x27CC DUP2 PUSH2 0x3A00 JUMP JUMPDEST SWAP3 SWAP2 POP POP JUMP JUMPDEST PUSH1 0x0 DUP2 CALLDATALOAD SWAP1 POP PUSH2 0x27E1 DUP2 PUSH2 0x3A17 JUMP JUMPDEST SWAP3 SWAP2 POP POP JUMP JUMPDEST PUSH1 0x0 DUP2 MLOAD SWAP1 POP PUSH2 0x27F6 DUP2 PUSH2 0x3A17 JUMP JUMPDEST SWAP3 SWAP2 POP POP JUMP JUMPDEST PUSH1 0x0 DUP2 CALLDATALOAD SWAP1 POP PUSH2 0x280B DUP2 PUSH2 0x3A2E JUMP JUMPDEST SWAP3 SWAP2 POP POP JUMP JUMPDEST PUSH1 0x0 DUP2 MLOAD SWAP1 POP PUSH2 0x2820 DUP2 PUSH2 0x3A45 JUMP JUMPDEST SWAP3 SWAP2 POP POP JUMP JUMPDEST PUSH1 0x0 DUP3 PUSH1 0x1F DUP4 ADD SLT PUSH2 0x283B JUMPI PUSH2 0x283A PUSH2 0x37DE JUMP JUMPDEST JUMPDEST DUP2 CALLDATALOAD PUSH2 0x284B DUP5 DUP3 PUSH1 0x20 DUP7 ADD PUSH2 0x277B JUMP JUMPDEST SWAP2 POP POP SWAP3 SWAP2 POP POP JUMP JUMPDEST PUSH1 0x0 DUP2 CALLDATALOAD SWAP1 POP PUSH2 0x2863 DUP2 PUSH2 0x3A5C JUMP JUMPDEST SWAP3 SWAP2 POP POP JUMP JUMPDEST PUSH1 0x0 DUP2 MLOAD SWAP1 POP PUSH2 0x2878 DUP2 PUSH2 0x3A5C JUMP JUMPDEST SWAP3 SWAP2 POP POP JUMP JUMPDEST PUSH1 0x0 DUP2 MLOAD SWAP1 POP PUSH2 0x288D DUP2 PUSH2 0x3A73 JUMP JUMPDEST SWAP3 SWAP2 POP POP JUMP JUMPDEST PUSH1 0x0 PUSH1 0x20 DUP3 DUP5 SUB SLT ISZERO PUSH2 0x28A9 JUMPI PUSH2 0x28A8 PUSH2 0x37ED JUMP JUMPDEST JUMPDEST PUSH1 0x0 PUSH2 0x28B7 DUP5 DUP3 DUP6 ADD PUSH2 0x27BD JUMP JUMPDEST SWAP2 POP POP SWAP3 SWAP2 POP POP JUMP JUMPDEST PUSH1 0x0 PUSH1 0x20 DUP3 DUP5 SUB SLT ISZERO PUSH2 0x28D6 JUMPI PUSH2 0x28D5 PUSH2 0x37ED JUMP JUMPDEST JUMPDEST PUSH1 0x0 PUSH2 0x28E4 DUP5 DUP3 DUP6 ADD PUSH2 0x27E7 JUMP JUMPDEST SWAP2 POP POP SWAP3 SWAP2 POP POP JUMP JUMPDEST PUSH1 0x0 PUSH1 0x20 DUP3 DUP5 SUB SLT ISZERO PUSH2 0x2903 JUMPI PUSH2 0x2902 PUSH2 0x37ED JUMP JUMPDEST JUMPDEST PUSH1 0x0 PUSH2 0x2911 DUP5 DUP3 DUP6 ADD PUSH2 0x27FC JUMP JUMPDEST SWAP2 POP POP SWAP3 SWAP2 POP POP JUMP JUMPDEST PUSH1 0x0 DUP1 PUSH1 0x40 DUP4 DUP6 SUB SLT ISZERO PUSH2 0x2931 JUMPI PUSH2 0x2930 PUSH2 0x37ED JUMP JUMPDEST JUMPDEST PUSH1 0x0 PUSH2 0x293F DUP6 DUP3 DUP7 ADD PUSH2 0x27FC JUMP JUMPDEST SWAP3 POP POP PUSH1 0x20 PUSH2 0x2950 DUP6 DUP3 DUP7 ADD PUSH2 0x27D2 JUMP JUMPDEST SWAP2 POP POP SWAP3 POP SWAP3 SWAP1 POP JUMP JUMPDEST PUSH1 0x0 PUSH1 0x20 DUP3 DUP5 SUB SLT ISZERO PUSH2 0x2970 JUMPI PUSH2 0x296F PUSH2 0x37ED JUMP JUMPDEST JUMPDEST PUSH1 0x0 DUP3 ADD CALLDATALOAD PUSH8 0xFFFFFFFFFFFFFFFF DUP2 GT ISZERO PUSH2 0x298E JUMPI PUSH2 0x298D PUSH2 0x37E8 JUMP JUMPDEST JUMPDEST PUSH2 0x299A DUP5 DUP3 DUP6 ADD PUSH2 0x2826 JUMP JUMPDEST SWAP2 POP POP SWAP3 SWAP2 POP POP JUMP JUMPDEST PUSH1 0x0 DUP1 PUSH1 0x40 DUP4 DUP6 SUB SLT ISZERO PUSH2 0x29BA JUMPI PUSH2 0x29B9 PUSH2 0x37ED JUMP JUMPDEST JUMPDEST PUSH1 0x0 DUP4 ADD CALLDATALOAD PUSH8 0xFFFFFFFFFFFFFFFF DUP2 GT ISZERO PUSH2 0x29D8 JUMPI PUSH2 0x29D7 PUSH2 0x37E8 JUMP JUMPDEST JUMPDEST PUSH2 0x29E4 DUP6 DUP3 DUP7 ADD PUSH2 0x2826 JUMP JUMPDEST SWAP3 POP POP PUSH1 0x20 PUSH2 0x29F5 DUP6 DUP3 DUP7 ADD PUSH2 0x27BD JUMP JUMPDEST SWAP2 POP POP SWAP3 POP SWAP3 SWAP1 POP JUMP JUMPDEST PUSH1 0x0 DUP1 PUSH1 0x0 PUSH1 0x60 DUP5 DUP7 SUB SLT ISZERO PUSH2 0x2A18 JUMPI PUSH2 0x2A17 PUSH2 0x37ED JUMP JUMPDEST JUMPDEST PUSH1 0x0 DUP5 ADD CALLDATALOAD PUSH8 0xFFFFFFFFFFFFFFFF DUP2 GT ISZERO PUSH2 0x2A36 JUMPI PUSH2 0x2A35 PUSH2 0x37E8 JUMP JUMPDEST JUMPDEST PUSH2 0x2A42 DUP7 DUP3 DUP8 ADD PUSH2 0x2826 JUMP JUMPDEST SWAP4 POP POP PUSH1 0x20 DUP5 ADD CALLDATALOAD PUSH8 0xFFFFFFFFFFFFFFFF DUP2 GT ISZERO PUSH2 0x2A63 JUMPI PUSH2 0x2A62 PUSH2 0x37E8 JUMP JUMPDEST JUMPDEST PUSH2 0x2A6F DUP7 DUP3 DUP8 ADD PUSH2 0x2826 JUMP JUMPDEST SWAP3 POP POP PUSH1 0x40 PUSH2 0x2A80 DUP7 DUP3 DUP8 ADD PUSH2 0x2854 JUMP JUMPDEST SWAP2 POP POP SWAP3 POP SWAP3 POP SWAP3 JUMP JUMPDEST PUSH1 0x0 PUSH1 0x20 DUP3 DUP5 SUB SLT ISZERO PUSH2 0x2AA0 JUMPI PUSH2 0x2A9F PUSH2 0x37ED JUMP JUMPDEST JUMPDEST PUSH1 0x0 PUSH2 0x2AAE DUP5 DUP3 DUP6 ADD PUSH2 0x2854 JUMP JUMPDEST SWAP2 POP POP SWAP3 SWAP2 POP POP JUMP JUMPDEST PUSH1 0x0 PUSH1 0x20 DUP3 DUP5 SUB SLT ISZERO PUSH2 0x2ACD JUMPI PUSH2 0x2ACC PUSH2 0x37ED JUMP JUMPDEST JUMPDEST PUSH1 0x0 PUSH2 0x2ADB DUP5 DUP3 DUP6 ADD PUSH2 0x2869 JUMP JUMPDEST SWAP2 POP POP SWAP3 SWAP2 POP POP JUMP JUMPDEST PUSH1 0x0 DUP1 PUSH1 0x0 DUP1 PUSH1 0x0 PUSH1 0xA0 DUP7 DUP9 SUB SLT ISZERO PUSH2 0x2B00 JUMPI PUSH2 0x2AFF PUSH2 0x37ED JUMP JUMPDEST JUMPDEST PUSH1 0x0 PUSH2 0x2B0E DUP9 DUP3 DUP10 ADD PUSH2 0x287E JUMP JUMPDEST SWAP6 POP POP PUSH1 0x20 PUSH2 0x2B1F DUP9 DUP3 DUP10 ADD PUSH2 0x2811 JUMP JUMPDEST SWAP5 POP POP PUSH1 0x40 PUSH2 0x2B30 DUP9 DUP3 DUP10 ADD PUSH2 0x2869 JUMP JUMPDEST SWAP4 POP POP PUSH1 0x60 PUSH2 0x2B41 DUP9 DUP3 DUP10 ADD PUSH2 0x2869 JUMP JUMPDEST SWAP3 POP POP PUSH1 0x80 PUSH2 0x2B52 DUP9 DUP3 DUP10 ADD PUSH2 0x287E JUMP JUMPDEST SWAP2 POP POP SWAP3 SWAP6 POP SWAP3 SWAP6 SWAP1 SWAP4 POP JUMP JUMPDEST PUSH2 0x2B68 DUP2 PUSH2 0x34A8 JUMP JUMPDEST DUP3 MSTORE POP POP JUMP JUMPDEST PUSH2 0x2B77 DUP2 PUSH2 0x3496 JUMP JUMPDEST DUP3 MSTORE POP POP JUMP JUMPDEST PUSH2 0x2B86 DUP2 PUSH2 0x34BA JUMP JUMPDEST DUP3 MSTORE POP POP JUMP JUMPDEST PUSH2 0x2B95 DUP2 PUSH2 0x34C6 JUMP JUMPDEST DUP3 MSTORE POP POP JUMP JUMPDEST PUSH2 0x2BA4 DUP2 PUSH2 0x34D0 JUMP JUMPDEST DUP3 MSTORE POP POP JUMP JUMPDEST PUSH1 0x0 PUSH2 0x2BB5 DUP3 PUSH2 0x31CD JUMP JUMPDEST PUSH2 0x2BBF DUP2 DUP6 PUSH2 0x31E3 JUMP JUMPDEST SWAP4 POP PUSH2 0x2BCF DUP2 DUP6 PUSH1 0x20 DUP7 ADD PUSH2 0x358B JUMP JUMPDEST PUSH2 0x2BD8 DUP2 PUSH2 0x37F2 JUMP JUMPDEST DUP5 ADD SWAP2 POP POP SWAP3 SWAP2 POP POP JUMP JUMPDEST PUSH2 0x2BF4 PUSH2 0x2BEF DUP3 PUSH2 0x3546 JUMP JUMPDEST PUSH2 0x3694 JUMP JUMPDEST DUP3 MSTORE POP POP JUMP JUMPDEST PUSH2 0x2C03 DUP2 PUSH2 0x34FC JUMP JUMPDEST DUP3 MSTORE POP POP JUMP JUMPDEST PUSH1 0x0 PUSH2 0x2C14 DUP3 PUSH2 0x31D8 JUMP JUMPDEST PUSH2 0x2C1E DUP2 DUP6 PUSH2 0x31F4 JUMP JUMPDEST SWAP4 POP PUSH2 0x2C2E DUP2 DUP6 PUSH1 0x20 DUP7 ADD PUSH2 0x358B JUMP JUMPDEST PUSH2 0x2C37 DUP2 PUSH2 0x37F2 JUMP JUMPDEST DUP5 ADD SWAP2 POP POP SWAP3 SWAP2 POP POP JUMP JUMPDEST PUSH1 0x0 PUSH2 0x2C4D DUP3 PUSH2 0x31D8 JUMP JUMPDEST PUSH2 0x2C57 DUP2 DUP6 PUSH2 0x3205 JUMP JUMPDEST SWAP4 POP PUSH2 0x2C67 DUP2 DUP6 PUSH1 0x20 DUP7 ADD PUSH2 0x358B JUMP JUMPDEST DUP1 DUP5 ADD SWAP2 POP POP SWAP3 SWAP2 POP POP JUMP JUMPDEST PUSH1 0x0 DUP2 SLOAD PUSH2 0x2C80 DUP2 PUSH2 0x35E8 JUMP JUMPDEST PUSH2 0x2C8A DUP2 DUP7 PUSH2 0x3205 JUMP JUMPDEST SWAP5 POP PUSH1 0x1 DUP3 AND PUSH1 0x0 DUP2 EQ PUSH2 0x2CA5 JUMPI PUSH1 0x1 DUP2 EQ PUSH2 0x2CB6 JUMPI PUSH2 0x2CE9 JUMP JUMPDEST PUSH1 0xFF NOT DUP4 AND DUP7 MSTORE DUP2 DUP7 ADD SWAP4 POP PUSH2 0x2CE9 JUMP JUMPDEST PUSH2 0x2CBF DUP6 PUSH2 0x31B8 JUMP JUMPDEST PUSH1 0x0 JUMPDEST DUP4 DUP2 LT ISZERO PUSH2 0x2CE1 JUMPI DUP2 SLOAD DUP2 DUP10 ADD MSTORE PUSH1 0x1 DUP3 ADD SWAP2 POP PUSH1 0x20 DUP2 ADD SWAP1 POP PUSH2 0x2CC2 JUMP JUMPDEST DUP4 DUP9 ADD SWAP6 POP POP POP JUMPDEST POP POP POP SWAP3 SWAP2 POP POP JUMP JUMPDEST PUSH1 0x0 PUSH2 0x2CFF PUSH1 0x20 DUP4 PUSH2 0x31F4 JUMP JUMPDEST SWAP2 POP PUSH2 0x2D0A DUP3 PUSH2 0x381D JUMP JUMPDEST PUSH1 0x20 DUP3 ADD SWAP1 POP SWAP2 SWAP1 POP JUMP JUMPDEST PUSH1 0x0 PUSH2 0x2D22 PUSH1 0x14 DUP4 PUSH2 0x31F4 JUMP JUMPDEST SWAP2 POP PUSH2 0x2D2D DUP3 PUSH2 0x3846 JUMP JUMPDEST PUSH1 0x20 DUP3 ADD SWAP1 POP SWAP2 SWAP1 POP JUMP JUMPDEST PUSH1 0x0 PUSH2 0x2D45 PUSH1 0x26 DUP4 PUSH2 0x31F4 JUMP JUMPDEST SWAP2 POP PUSH2 0x2D50 DUP3 PUSH2 0x386F JUMP JUMPDEST PUSH1 0x40 DUP3 ADD SWAP1 POP SWAP2 SWAP1 POP JUMP JUMPDEST PUSH1 0x0 PUSH2 0x2D68 PUSH1 0x23 DUP4 PUSH2 0x31F4 JUMP JUMPDEST SWAP2 POP PUSH2 0x2D73 DUP3 PUSH2 0x38BE JUMP JUMPDEST PUSH1 0x40 DUP3 ADD SWAP1 POP SWAP2 SWAP1 POP JUMP JUMPDEST PUSH1 0x0 PUSH2 0x2D8B PUSH1 0x10 DUP4 PUSH2 0x31F4 JUMP JUMPDEST SWAP2 POP PUSH2 0x2D96 DUP3 PUSH2 0x390D JUMP JUMPDEST PUSH1 0x20 DUP3 ADD SWAP1 POP SWAP2 SWAP1 POP JUMP JUMPDEST PUSH1 0x0 PUSH2 0x2DAE PUSH1 0x12 DUP4 PUSH2 0x31F4 JUMP JUMPDEST SWAP2 POP PUSH2 0x2DB9 DUP3 PUSH2 0x3936 JUMP JUMPDEST PUSH1 0x20 DUP3 ADD SWAP1 POP SWAP2 SWAP1 POP JUMP JUMPDEST PUSH1 0x0 PUSH2 0x2DD1 PUSH1 0x20 DUP4 PUSH2 0x31F4 JUMP JUMPDEST SWAP2 POP PUSH2 0x2DDC DUP3 PUSH2 0x395F JUMP JUMPDEST PUSH1 0x20 DUP3 ADD SWAP1 POP SWAP2 SWAP1 POP JUMP JUMPDEST PUSH1 0x0 PUSH2 0x2DF4 PUSH1 0x28 DUP4 PUSH2 0x31F4 JUMP JUMPDEST SWAP2 POP PUSH2 0x2DFF DUP3 PUSH2 0x3988 JUMP JUMPDEST PUSH1 0x40 DUP3 ADD SWAP1 POP SWAP2 SWAP1 POP JUMP JUMPDEST PUSH1 0x0 PUSH2 0x2E17 PUSH1 0x1F DUP4 PUSH2 0x31F4 JUMP JUMPDEST SWAP2 POP PUSH2 0x2E22 DUP3 PUSH2 0x39D7 JUMP JUMPDEST PUSH1 0x20 DUP3 ADD SWAP1 POP SWAP2 SWAP1 POP JUMP JUMPDEST PUSH2 0x2E36 DUP2 PUSH2 0x3526 JUMP JUMPDEST DUP3 MSTORE POP POP JUMP JUMPDEST PUSH2 0x2E4D PUSH2 0x2E48 DUP3 PUSH2 0x3526 JUMP JUMPDEST PUSH2 0x36B8 JUMP JUMPDEST DUP3 MSTORE POP POP JUMP JUMPDEST PUSH1 0x0 PUSH2 0x2E5F DUP3 DUP6 PUSH2 0x2BE3 JUMP JUMPDEST PUSH1 0x14 DUP3 ADD SWAP2 POP PUSH2 0x2E6F DUP3 DUP5 PUSH2 0x2E3C JUMP JUMPDEST PUSH1 0x20 DUP3 ADD SWAP2 POP DUP2 SWAP1 POP SWAP4 SWAP3 POP POP POP JUMP JUMPDEST PUSH1 0x0 PUSH2 0x2E8B DUP3 DUP5 PUSH2 0x2C42 JUMP JUMPDEST SWAP2 POP DUP2 SWAP1 POP SWAP3 SWAP2 POP POP JUMP JUMPDEST PUSH1 0x0 PUSH2 0x2EA2 DUP3 DUP5 PUSH2 0x2C73 JUMP JUMPDEST SWAP2 POP DUP2 SWAP1 POP SWAP3 SWAP2 POP POP JUMP JUMPDEST PUSH1 0x0 PUSH1 0x20 DUP3 ADD SWAP1 POP PUSH2 0x2EC2 PUSH1 0x0 DUP4 ADD DUP5 PUSH2 0x2B6E JUMP JUMPDEST SWAP3 SWAP2 POP POP JUMP JUMPDEST PUSH1 0x0 PUSH1 0x20 DUP3 ADD SWAP1 POP PUSH2 0x2EDD PUSH1 0x0 DUP4 ADD DUP5 PUSH2 0x2B5F JUMP JUMPDEST SWAP3 SWAP2 POP POP JUMP JUMPDEST PUSH1 0x0 PUSH1 0x40 DUP3 ADD SWAP1 POP PUSH2 0x2EF8 PUSH1 0x0 DUP4 ADD DUP6 PUSH2 0x2B6E JUMP JUMPDEST PUSH2 0x2F05 PUSH1 0x20 DUP4 ADD DUP5 PUSH2 0x2E2D JUMP JUMPDEST SWAP4 SWAP3 POP POP POP JUMP JUMPDEST PUSH1 0x0 PUSH2 0x100 DUP3 ADD SWAP1 POP PUSH2 0x2F22 PUSH1 0x0 DUP4 ADD DUP12 PUSH2 0x2B6E JUMP JUMPDEST PUSH2 0x2F2F PUSH1 0x20 DUP4 ADD DUP11 PUSH2 0x2E2D JUMP JUMPDEST PUSH2 0x2F3C PUSH1 0x40 DUP4 ADD DUP10 PUSH2 0x2B8C JUMP JUMPDEST PUSH2 0x2F49 PUSH1 0x60 DUP4 ADD DUP9 PUSH2 0x2B6E JUMP JUMPDEST PUSH2 0x2F56 PUSH1 0x80 DUP4 ADD DUP8 PUSH2 0x2B9B JUMP JUMPDEST PUSH2 0x2F63 PUSH1 0xA0 DUP4 ADD DUP7 PUSH2 0x2E2D JUMP JUMPDEST PUSH2 0x2F70 PUSH1 0xC0 DUP4 ADD DUP6 PUSH2 0x2E2D JUMP JUMPDEST DUP2 DUP2 SUB PUSH1 0xE0 DUP4 ADD MSTORE PUSH2 0x2F82 DUP2 DUP5 PUSH2 0x2BAA JUMP JUMPDEST SWAP1 POP SWAP10 SWAP9 POP POP POP POP POP POP POP POP POP JUMP JUMPDEST PUSH1 0x0 PUSH1 0x60 DUP3 ADD SWAP1 POP PUSH2 0x2FA6 PUSH1 0x0 DUP4 ADD DUP7 PUSH2 0x2B6E JUMP JUMPDEST PUSH2 0x2FB3 PUSH1 0x20 DUP4 ADD DUP6 PUSH2 0x2E2D JUMP JUMPDEST DUP2 DUP2 SUB PUSH1 0x40 DUP4 ADD MSTORE PUSH2 0x2FC5 DUP2 DUP5 PUSH2 0x2BAA JUMP JUMPDEST SWAP1 POP SWAP5 SWAP4 POP POP POP POP JUMP JUMPDEST PUSH1 0x0 PUSH1 0x20 DUP3 ADD SWAP1 POP PUSH2 0x2FE4 PUSH1 0x0 DUP4 ADD DUP5 PUSH2 0x2B7D JUMP JUMPDEST SWAP3 SWAP2 POP POP JUMP JUMPDEST PUSH1 0x0 PUSH1 0x20 DUP3 ADD SWAP1 POP PUSH2 0x2FFF PUSH1 0x0 DUP4 ADD DUP5 PUSH2 0x2BFA JUMP JUMPDEST SWAP3 SWAP2 POP POP JUMP JUMPDEST PUSH1 0x0 PUSH1 0x20 DUP3 ADD SWAP1 POP DUP2 DUP2 SUB PUSH1 0x0 DUP4 ADD MSTORE PUSH2 0x301F DUP2 DUP5 PUSH2 0x2C09 JUMP JUMPDEST SWAP1 POP SWAP3 SWAP2 POP POP JUMP JUMPDEST PUSH1 0x0 PUSH1 0x20 DUP3 ADD SWAP1 POP DUP2 DUP2 SUB PUSH1 0x0 DUP4 ADD MSTORE PUSH2 0x3040 DUP2 PUSH2 0x2CF2 JUMP JUMPDEST SWAP1 POP SWAP2 SWAP1 POP JUMP JUMPDEST PUSH1 0x0 PUSH1 0x20 DUP3 ADD SWAP1 POP DUP2 DUP2 SUB PUSH1 0x0 DUP4 ADD MSTORE PUSH2 0x3060 DUP2 PUSH2 0x2D15 JUMP JUMPDEST SWAP1 POP SWAP2 SWAP1 POP JUMP JUMPDEST PUSH1 0x0 PUSH1 0x20 DUP3 ADD SWAP1 POP DUP2 DUP2 SUB PUSH1 0x0 DUP4 ADD MSTORE PUSH2 0x3080 DUP2 PUSH2 0x2D38 JUMP JUMPDEST SWAP1 POP SWAP2 SWAP1 POP JUMP JUMPDEST PUSH1 0x0 PUSH1 0x20 DUP3 ADD SWAP1 POP DUP2 DUP2 SUB PUSH1 0x0 DUP4 ADD MSTORE PUSH2 0x30A0 DUP2 PUSH2 0x2D5B JUMP JUMPDEST SWAP1 POP SWAP2 SWAP1 POP JUMP JUMPDEST PUSH1 0x0 PUSH1 0x20 DUP3 ADD SWAP1 POP DUP2 DUP2 SUB PUSH1 0x0 DUP4 ADD MSTORE PUSH2 0x30C0 DUP2 PUSH2 0x2D7E JUMP JUMPDEST SWAP1 POP SWAP2 SWAP1 POP JUMP JUMPDEST PUSH1 0x0 PUSH1 0x20 DUP3 ADD SWAP1 POP DUP2 DUP2 SUB PUSH1 0x0 DUP4 ADD MSTORE PUSH2 0x30E0 DUP2 PUSH2 0x2DA1 JUMP JUMPDEST SWAP1 POP SWAP2 SWAP1 POP JUMP JUMPDEST PUSH1 0x0 PUSH1 0x20 DUP3 ADD SWAP1 POP DUP2 DUP2 SUB PUSH1 0x0 DUP4 ADD MSTORE PUSH2 0x3100 DUP2 PUSH2 0x2DC4 JUMP JUMPDEST SWAP1 POP SWAP2 SWAP1 POP JUMP JUMPDEST PUSH1 0x0 PUSH1 0x20 DUP3 ADD SWAP1 POP DUP2 DUP2 SUB PUSH1 0x0 DUP4 ADD MSTORE PUSH2 0x3120 DUP2 PUSH2 0x2DE7 JUMP JUMPDEST SWAP1 POP SWAP2 SWAP1 POP JUMP JUMPDEST PUSH1 0x0 PUSH1 0x20 DUP3 ADD SWAP1 POP DUP2 DUP2 SUB PUSH1 0x0 DUP4 ADD MSTORE PUSH2 0x3140 DUP2 PUSH2 0x2E0A JUMP JUMPDEST SWAP1 POP SWAP2 SWAP1 POP JUMP JUMPDEST PUSH1 0x0 PUSH1 0x20 DUP3 ADD SWAP1 POP PUSH2 0x315C PUSH1 0x0 DUP4 ADD DUP5 PUSH2 0x2E2D JUMP JUMPDEST SWAP3 SWAP2 POP POP JUMP JUMPDEST PUSH1 0x0 PUSH2 0x316C PUSH2 0x317D JUMP JUMPDEST SWAP1 POP PUSH2 0x3178 DUP3 DUP3 PUSH2 0x361A JUMP JUMPDEST SWAP2 SWAP1 POP JUMP JUMPDEST PUSH1 0x0 PUSH1 0x40 MLOAD SWAP1 POP SWAP1 JUMP JUMPDEST PUSH1 0x0 PUSH8 0xFFFFFFFFFFFFFFFF DUP3 GT ISZERO PUSH2 0x31A2 JUMPI PUSH2 0x31A1 PUSH2 0x37AF JUMP JUMPDEST JUMPDEST PUSH2 0x31AB DUP3 PUSH2 0x37F2 JUMP JUMPDEST SWAP1 POP PUSH1 0x20 DUP2 ADD SWAP1 POP SWAP2 SWAP1 POP JUMP JUMPDEST PUSH1 0x0 DUP2 SWAP1 POP DUP2 PUSH1 0x0 MSTORE PUSH1 0x20 PUSH1 0x0 KECCAK256 SWAP1 POP SWAP2 SWAP1 POP JUMP JUMPDEST PUSH1 0x0 DUP2 MLOAD SWAP1 POP SWAP2 SWAP1 POP JUMP JUMPDEST PUSH1 0x0 DUP2 MLOAD SWAP1 POP SWAP2 SWAP1 POP JUMP JUMPDEST PUSH1 0x0 DUP3 DUP3 MSTORE PUSH1 0x20 DUP3 ADD SWAP1 POP SWAP3 SWAP2 POP POP JUMP JUMPDEST PUSH1 0x0 DUP3 DUP3 MSTORE PUSH1 0x20 DUP3 ADD SWAP1 POP SWAP3 SWAP2 POP POP JUMP JUMPDEST PUSH1 0x0 DUP2 SWAP1 POP SWAP3 SWAP2 POP POP JUMP JUMPDEST PUSH1 0x0 PUSH2 0x321B DUP3 PUSH2 0x3526 JUMP JUMPDEST SWAP2 POP PUSH2 0x3226 DUP4 PUSH2 0x3526 JUMP JUMPDEST SWAP3 POP DUP3 PUSH32 0xFFFFFFFFFFFFFFFFFFFFFFFFFFFFFFFFFFFFFFFFFFFFFFFFFFFFFFFFFFFFFFFF SUB DUP3 GT ISZERO PUSH2 0x325B JUMPI PUSH2 0x325A PUSH2 0x36F3 JUMP JUMPDEST JUMPDEST DUP3 DUP3 ADD SWAP1 POP SWAP3 SWAP2 POP POP JUMP JUMPDEST PUSH1 0x0 PUSH2 0x3271 DUP3 PUSH2 0x3526 JUMP JUMPDEST SWAP2 POP PUSH2 0x327C DUP4 PUSH2 0x3526 JUMP JUMPDEST SWAP3 POP DUP3 PUSH2 0x328C JUMPI PUSH2 0x328B PUSH2 0x3722 JUMP JUMPDEST JUMPDEST DUP3 DUP3 DIV SWAP1 POP SWAP3 SWAP2 POP POP JUMP JUMPDEST PUSH1 0x0 DUP1 DUP3 SWAP2 POP DUP4 SWAP1 POP JUMPDEST PUSH1 0x1 DUP6 GT ISZERO PUSH2 0x32E1 JUMPI DUP1 DUP7 DIV DUP2 GT ISZERO PUSH2 0x32BD JUMPI PUSH2 0x32BC PUSH2 0x36F3 JUMP JUMPDEST JUMPDEST PUSH1 0x1 DUP6 AND ISZERO PUSH2 0x32CC JUMPI DUP1 DUP3 MUL SWAP2 POP JUMPDEST DUP1 DUP2 MUL SWAP1 POP PUSH2 0x32DA DUP6 PUSH2 0x3810 JUMP JUMPDEST SWAP5 POP PUSH2 0x32A1 JUMP JUMPDEST SWAP5 POP SWAP5 SWAP3 POP POP POP JUMP JUMPDEST PUSH1 0x0 PUSH2 0x32F5 DUP3 PUSH2 0x3526 JUMP JUMPDEST SWAP2 POP PUSH2 0x3300 DUP4 PUSH2 0x3526 JUMP JUMPDEST SWAP3 POP PUSH2 0x332D PUSH32 0xFFFFFFFFFFFFFFFFFFFFFFFFFFFFFFFFFFFFFFFFFFFFFFFFFFFFFFFFFFFFFFFF DUP5 DUP5 PUSH2 0x3335 JUMP JUMPDEST SWAP1 POP SWAP3 SWAP2 POP POP JUMP JUMPDEST PUSH1 0x0 DUP3 PUSH2 0x3345 JUMPI PUSH1 0x1 SWAP1 POP PUSH2 0x3401 JUMP JUMPDEST DUP2 PUSH2 0x3353 JUMPI PUSH1 0x0 SWAP1 POP PUSH2 0x3401 JUMP JUMPDEST DUP2 PUSH1 0x1 DUP2 EQ PUSH2 0x3369 JUMPI PUSH1 0x2 DUP2 EQ PUSH2 0x3373 JUMPI PUSH2 0x33A2 JUMP JUMPDEST PUSH1 0x1 SWAP2 POP POP PUSH2 0x3401 JUMP JUMPDEST PUSH1 0xFF DUP5 GT ISZERO PUSH2 0x3385 JUMPI PUSH2 0x3384 PUSH2 0x36F3 JUMP JUMPDEST JUMPDEST DUP4 PUSH1 0x2 EXP SWAP2 POP DUP5 DUP3 GT ISZERO PUSH2 0x339C JUMPI PUSH2 0x339B PUSH2 0x36F3 JUMP JUMPDEST JUMPDEST POP PUSH2 0x3401 JUMP JUMPDEST POP PUSH1 0x20 DUP4 LT PUSH2 0x133 DUP4 LT AND PUSH1 0x4E DUP5 LT PUSH1 0xB DUP5 LT AND OR ISZERO PUSH2 0x33D7 JUMPI DUP3 DUP3 EXP SWAP1 POP DUP4 DUP2 GT ISZERO PUSH2 0x33D2 JUMPI PUSH2 0x33D1 PUSH2 0x36F3 JUMP JUMPDEST JUMPDEST PUSH2 0x3401 JUMP JUMPDEST PUSH2 0x33E4 DUP5 DUP5 DUP5 PUSH1 0x1 PUSH2 0x3297 JUMP JUMPDEST SWAP3 POP SWAP1 POP DUP2 DUP5 DIV DUP2 GT ISZERO PUSH2 0x33FB JUMPI PUSH2 0x33FA PUSH2 0x36F3 JUMP JUMPDEST JUMPDEST DUP2 DUP2 MUL SWAP1 POP JUMPDEST SWAP4 SWAP3 POP POP POP JUMP JUMPDEST PUSH1 0x0 PUSH2 0x3413 DUP3 PUSH2 0x3526 JUMP JUMPDEST SWAP2 POP PUSH2 0x341E DUP4 PUSH2 0x3526 JUMP JUMPDEST SWAP3 POP DUP2 PUSH32 0xFFFFFFFFFFFFFFFFFFFFFFFFFFFFFFFFFFFFFFFFFFFFFFFFFFFFFFFFFFFFFFFF DIV DUP4 GT DUP3 ISZERO ISZERO AND ISZERO PUSH2 0x3457 JUMPI PUSH2 0x3456 PUSH2 0x36F3 JUMP JUMPDEST JUMPDEST DUP3 DUP3 MUL SWAP1 POP SWAP3 SWAP2 POP POP JUMP JUMPDEST PUSH1 0x0 PUSH2 0x346D DUP3 PUSH2 0x3526 JUMP JUMPDEST SWAP2 POP PUSH2 0x3478 DUP4 PUSH2 0x3526 JUMP JUMPDEST SWAP3 POP DUP3 DUP3 LT ISZERO PUSH2 0x348B JUMPI PUSH2 0x348A PUSH2 0x36F3 JUMP JUMPDEST JUMPDEST DUP3 DUP3 SUB SWAP1 POP SWAP3 SWAP2 POP POP JUMP JUMPDEST PUSH1 0x0 PUSH2 0x34A1 DUP3 PUSH2 0x3506 JUMP JUMPDEST SWAP1 POP SWAP2 SWAP1 POP JUMP JUMPDEST PUSH1 0x0 PUSH2 0x34B3 DUP3 PUSH2 0x3506 JUMP JUMPDEST SWAP1 POP SWAP2 SWAP1 POP JUMP JUMPDEST PUSH1 0x0 DUP2 ISZERO ISZERO SWAP1 POP SWAP2 SWAP1 POP JUMP JUMPDEST PUSH1 0x0 DUP2 SWAP1 POP SWAP2 SWAP1 POP JUMP JUMPDEST PUSH1 0x0 PUSH32 0xFFFFFFFF00000000000000000000000000000000000000000000000000000000 DUP3 AND SWAP1 POP SWAP2 SWAP1 POP JUMP JUMPDEST PUSH1 0x0 DUP2 SWAP1 POP SWAP2 SWAP1 POP JUMP JUMPDEST PUSH1 0x0 PUSH20 0xFFFFFFFFFFFFFFFFFFFFFFFFFFFFFFFFFFFFFFFF DUP3 AND SWAP1 POP SWAP2 SWAP1 POP JUMP JUMPDEST PUSH1 0x0 DUP2 SWAP1 POP SWAP2 SWAP1 POP JUMP JUMPDEST PUSH1 0x0 PUSH10 0xFFFFFFFFFFFFFFFFFFFF DUP3 AND SWAP1 POP SWAP2 SWAP1 POP JUMP JUMPDEST PUSH1 0x0 PUSH2 0x3551 DUP3 PUSH2 0x3558 JUMP JUMPDEST SWAP1 POP SWAP2 SWAP1 POP JUMP JUMPDEST PUSH1 0x0 PUSH2 0x3563 DUP3 PUSH2 0x356A JUMP JUMPDEST SWAP1 POP SWAP2 SWAP1 POP JUMP JUMPDEST PUSH1 0x0 PUSH2 0x3575 DUP3 PUSH2 0x3506 JUMP JUMPDEST SWAP1 POP SWAP2 SWAP1 POP JUMP JUMPDEST DUP3 DUP2 DUP4 CALLDATACOPY PUSH1 0x0 DUP4 DUP4 ADD MSTORE POP POP POP JUMP JUMPDEST PUSH1 0x0 JUMPDEST DUP4 DUP2 LT ISZERO PUSH2 0x35A9 JUMPI DUP1 DUP3 ADD MLOAD DUP2 DUP5 ADD MSTORE PUSH1 0x20 DUP2 ADD SWAP1 POP PUSH2 0x358E JUMP JUMPDEST DUP4 DUP2 GT ISZERO PUSH2 0x35B8 JUMPI PUSH1 0x0 DUP5 DUP5 ADD MSTORE JUMPDEST POP POP POP POP JUMP JUMPDEST PUSH1 0x0 PUSH2 0x35C9 DUP3 PUSH2 0x3526 JUMP JUMPDEST SWAP2 POP PUSH1 0x0 DUP3 EQ ISZERO PUSH2 0x35DD JUMPI PUSH2 0x35DC PUSH2 0x36F3 JUMP JUMPDEST JUMPDEST PUSH1 0x1 DUP3 SUB SWAP1 POP SWAP2 SWAP1 POP JUMP JUMPDEST PUSH1 0x0 PUSH1 0x2 DUP3 DIV SWAP1 POP PUSH1 0x1 DUP3 AND DUP1 PUSH2 0x3600 JUMPI PUSH1 0x7F DUP3 AND SWAP2 POP JUMPDEST PUSH1 0x20 DUP3 LT DUP2 EQ ISZERO PUSH2 0x3614 JUMPI PUSH2 0x3613 PUSH2 0x3751 JUMP JUMPDEST JUMPDEST POP SWAP2 SWAP1 POP JUMP JUMPDEST PUSH2 0x3623 DUP3 PUSH2 0x37F2 JUMP JUMPDEST DUP2 ADD DUP2 DUP2 LT PUSH8 0xFFFFFFFFFFFFFFFF DUP3 GT OR ISZERO PUSH2 0x3642 JUMPI PUSH2 0x3641 PUSH2 0x37AF JUMP JUMPDEST JUMPDEST DUP1 PUSH1 0x40 MSTORE POP POP POP JUMP JUMPDEST PUSH1 0x0 PUSH2 0x3656 DUP3 PUSH2 0x3526 JUMP JUMPDEST SWAP2 POP PUSH32 0xFFFFFFFFFFFFFFFFFFFFFFFFFFFFFFFFFFFFFFFFFFFFFFFFFFFFFFFFFFFFFFFF DUP3 EQ ISZERO PUSH2 0x3689 JUMPI PUSH2 0x3688 PUSH2 0x36F3 JUMP JUMPDEST JUMPDEST PUSH1 0x1 DUP3 ADD SWAP1 POP SWAP2 SWAP1 POP JUMP JUMPDEST PUSH1 0x0 PUSH2 0x369F DUP3 PUSH2 0x36A6 JUMP JUMPDEST SWAP1 POP SWAP2 SWAP1 POP JUMP JUMPDEST PUSH1 0x0 PUSH2 0x36B1 DUP3 PUSH2 0x3803 JUMP JUMPDEST SWAP1 POP SWAP2 SWAP1 POP JUMP JUMPDEST PUSH1 0x0 DUP2 SWAP1 POP SWAP2 SWAP1 POP JUMP JUMPDEST PUSH1 0x0 PUSH2 0x36CD DUP3 PUSH2 0x3526 JUMP JUMPDEST SWAP2 POP PUSH2 0x36D8 DUP4 PUSH2 0x3526 JUMP JUMPDEST SWAP3 POP DUP3 PUSH2 0x36E8 JUMPI PUSH2 0x36E7 PUSH2 0x3722 JUMP JUMPDEST JUMPDEST DUP3 DUP3 MOD SWAP1 POP SWAP3 SWAP2 POP POP JUMP JUMPDEST PUSH32 0x4E487B7100000000000000000000000000000000000000000000000000000000 PUSH1 0x0 MSTORE PUSH1 0x11 PUSH1 0x4 MSTORE PUSH1 0x24 PUSH1 0x0 REVERT JUMPDEST PUSH32 0x4E487B7100000000000000000000000000000000000000000000000000000000 PUSH1 0x0 MSTORE PUSH1 0x12 PUSH1 0x4 MSTORE PUSH1 0x24 PUSH1 0x0 REVERT JUMPDEST PUSH32 0x4E487B7100000000000000000000000000000000000000000000000000000000 PUSH1 0x0 MSTORE PUSH1 0x22 PUSH1 0x4 MSTORE PUSH1 0x24 PUSH1 0x0 REVERT JUMPDEST PUSH32 0x4E487B7100000000000000000000000000000000000000000000000000000000 PUSH1 0x0 MSTORE PUSH1 0x32 PUSH1 0x4 MSTORE PUSH1 0x24 PUSH1 0x0 REVERT JUMPDEST PUSH32 0x4E487B7100000000000000000000000000000000000000000000000000000000 PUSH1 0x0 MSTORE PUSH1 0x41 PUSH1 0x4 MSTORE PUSH1 0x24 PUSH1 0x0 REVERT JUMPDEST PUSH1 0x0 DUP1 REVERT JUMPDEST PUSH1 0x0 DUP1 REVERT JUMPDEST PUSH1 0x0 DUP1 REVERT JUMPDEST PUSH1 0x0 DUP1 REVERT JUMPDEST PUSH1 0x0 PUSH1 0x1F NOT PUSH1 0x1F DUP4 ADD AND SWAP1 POP SWAP2 SWAP1 POP JUMP JUMPDEST PUSH1 0x0 DUP2 PUSH1 0x60 SHL SWAP1 POP SWAP2 SWAP1 POP JUMP JUMPDEST PUSH1 0x0 DUP2 PUSH1 0x1 SHR SWAP1 POP SWAP2 SWAP1 POP JUMP JUMPDEST PUSH32 0x537472696E67733A20686578206C656E67746820696E73756666696369656E74 PUSH1 0x0 DUP3 ADD MSTORE POP JUMP JUMPDEST PUSH32 0x5061757361626C653A206E6F7420706175736564000000000000000000000000 PUSH1 0x0 DUP3 ADD MSTORE POP JUMP JUMPDEST PUSH32 0x4F776E61626C653A206E6577206F776E657220697320746865207A65726F2061 PUSH1 0x0 DUP3 ADD MSTORE PUSH32 0x6464726573730000000000000000000000000000000000000000000000000000 PUSH1 0x20 DUP3 ADD MSTORE POP JUMP JUMPDEST PUSH32 0x756E61626C6520746F207472616E73666572416E6443616C6C20746F206F7261 PUSH1 0x0 DUP3 ADD MSTORE PUSH32 0x636C650000000000000000000000000000000000000000000000000000000000 PUSH1 0x20 DUP3 ADD MSTORE POP JUMP JUMPDEST PUSH32 0x5061757361626C653A2070617573656400000000000000000000000000000000 PUSH1 0x0 DUP3 ADD MSTORE POP JUMP JUMPDEST PUSH32 0x556E61626C6520746F207472616E736665720000000000000000000000000000 PUSH1 0x0 DUP3 ADD MSTORE POP JUMP JUMPDEST PUSH32 0x4F776E61626C653A2063616C6C6572206973206E6F7420746865206F776E6572 PUSH1 0x0 DUP3 ADD MSTORE POP JUMP JUMPDEST PUSH32 0x536F75726365206D75737420626520746865206F7261636C65206F6620746865 PUSH1 0x0 DUP3 ADD MSTORE PUSH32 0x2072657175657374000000000000000000000000000000000000000000000000 PUSH1 0x20 DUP3 ADD MSTORE POP JUMP JUMPDEST PUSH32 0x5265656E7472616E637947756172643A207265656E7472616E742063616C6C00 PUSH1 0x0 DUP3 ADD MSTORE POP JUMP JUMPDEST PUSH2 0x3A09 DUP2 PUSH2 0x3496 JUMP JUMPDEST DUP2 EQ PUSH2 0x3A14 JUMPI PUSH1 0x0 DUP1 REVERT JUMPDEST POP JUMP JUMPDEST PUSH2 0x3A20 DUP2 PUSH2 0x34BA JUMP JUMPDEST DUP2 EQ PUSH2 0x3A2B JUMPI PUSH1 0x0 DUP1 REVERT JUMPDEST POP JUMP JUMPDEST PUSH2 0x3A37 DUP2 PUSH2 0x34C6 JUMP JUMPDEST DUP2 EQ PUSH2 0x3A42 JUMPI PUSH1 0x0 DUP1 REVERT JUMPDEST POP JUMP JUMPDEST PUSH2 0x3A4E DUP2 PUSH2 0x34FC JUMP JUMPDEST DUP2 EQ PUSH2 0x3A59 JUMPI PUSH1 0x0 DUP1 REVERT JUMPDEST POP JUMP JUMPDEST PUSH2 0x3A65 DUP2 PUSH2 0x3526 JUMP JUMPDEST DUP2 EQ PUSH2 0x3A70 JUMPI PUSH1 0x0 DUP1 REVERT JUMPDEST POP JUMP JUMPDEST PUSH2 0x3A7C DUP2 PUSH2 0x3530 JUMP JUMPDEST DUP2 EQ PUSH2 0x3A87 JUMPI PUSH1 0x0 DUP1 REVERT JUMPDEST POP JUMP INVALID LOG2 PUSH5 0x6970667358 0x22 SLT KECCAK256 0x2A 0x26 0x2B 0xD7 GT 0xE3 PUSH22 0x1E36E7EC59C41866C4ACD3AF3BB5F7941C3B5327BA7D 0x24 0xD5 MLOAD PUSH5 0x736F6C6343 STOP ADDMOD SMOD STOP CALLER "
		},
		"gasEstimates": {
			"creation": {
				"codeDepositCost": "3008000",
				"executionCost": "infinite",
				"totalCost": "infinite"
			},
			"external": {
				"PayIn(string,string,uint256)": "infinite",
				"PayoutAmount(bytes32)": "2811",
				"PayoutBackToUser(bytes32)": "infinite",
				"PayoutToRecipient(bytes32)": "infinite",
				"PayoutUser(bytes32)": "infinite",
				"fulfill(bytes32,bool)": "infinite",
				"getLatestPrice()": "infinite",
				"owner()": "2567",
				"pause()": "infinite",
				"paused()": "2502",
				"payoutFulfill(bytes32,bool)": "infinite",
				"renounceOwnership()": "30463",
				"setOracle(address)": "27073",
				"setPayout(string,address)": "infinite",
				"transferOwnership(address)": "30789",
				"unpause()": "infinite",
				"unverifiedPayoutAddresses(string)": "infinite",
				"updateAppFee(uint256)": "infinite",
				"updateTgetherFee(uint256)": "24805",
				"verifiedPayoutAddresses(string)": "infinite",
				"withdrawLink()": "infinite"
			}
		},
		"methodIdentifiers": {
			"PayIn(string,string,uint256)": "abd97219",
			"PayoutAmount(bytes32)": "1d86d2d7",
			"PayoutBackToUser(bytes32)": "fb38596b",
			"PayoutToRecipient(bytes32)": "449c9e37",
			"PayoutUser(bytes32)": "07b4b753",
			"fulfill(bytes32,bool)": "fd68990a",
			"getLatestPrice()": "8e15f473",
			"owner()": "8da5cb5b",
			"pause()": "8456cb59",
			"paused()": "5c975abb",
			"payoutFulfill(bytes32,bool)": "f3333214",
			"renounceOwnership()": "715018a6",
			"setOracle(address)": "7adbf973",
			"setPayout(string,address)": "b66320fa",
			"transferOwnership(address)": "f2fde38b",
			"unpause()": "3f4ba83a",
			"unverifiedPayoutAddresses(string)": "6acb0d60",
			"updateAppFee(uint256)": "52492815",
			"updateTgetherFee(uint256)": "6602231d",
			"verifiedPayoutAddresses(string)": "eeecb47f",
			"withdrawLink()": "8dc654a2"
		}
	},
	"abi": [
		{
			"inputs": [],
			"stateMutability": "nonpayable",
			"type": "constructor"
		},
		{
			"anonymous": false,
			"inputs": [
				{
					"indexed": false,
					"internalType": "uint256",
					"name": "fee",
					"type": "uint256"
				}
			],
			"name": "AppFeeChanged",
			"type": "event"
		},
		{
			"anonymous": false,
			"inputs": [
				{
					"indexed": true,
					"internalType": "bytes32",
					"name": "id",
					"type": "bytes32"
				}
			],
			"name": "ChainlinkCancelled",
			"type": "event"
		},
		{
			"anonymous": false,
			"inputs": [
				{
					"indexed": true,
					"internalType": "bytes32",
					"name": "id",
					"type": "bytes32"
				}
			],
			"name": "ChainlinkFulfilled",
			"type": "event"
		},
		{
			"anonymous": false,
			"inputs": [
				{
					"indexed": true,
					"internalType": "bytes32",
					"name": "id",
					"type": "bytes32"
				}
			],
			"name": "ChainlinkRequested",
			"type": "event"
		},
		{
			"anonymous": false,
			"inputs": [
				{
					"indexed": true,
					"internalType": "address",
					"name": "previousOwner",
					"type": "address"
				},
				{
					"indexed": true,
					"internalType": "address",
					"name": "newOwner",
					"type": "address"
				}
			],
			"name": "OwnershipTransferred",
			"type": "event"
		},
		{
			"anonymous": false,
			"inputs": [
				{
					"indexed": false,
					"internalType": "address",
					"name": "account",
					"type": "address"
				}
			],
			"name": "Paused",
			"type": "event"
		},
		{
			"anonymous": false,
			"inputs": [
				{
					"indexed": false,
					"internalType": "address",
					"name": "account",
					"type": "address"
				}
			],
			"name": "Unpaused",
			"type": "event"
		},
		{
			"anonymous": false,
			"inputs": [
				{
					"indexed": false,
					"internalType": "bool",
					"name": "_paymentSucceded",
					"type": "bool"
				}
			],
			"name": "setPayoutSuccess",
			"type": "event"
		},
		{
			"anonymous": false,
			"inputs": [
				{
					"indexed": false,
					"internalType": "bool",
					"name": "_paymentSucceded",
					"type": "bool"
				}
			],
			"name": "transactionSuccess",
			"type": "event"
		},
		{
			"inputs": [
				{
					"internalType": "string",
					"name": "_username",
					"type": "string"
				},
				{
					"internalType": "string",
					"name": "_recipientusername",
					"type": "string"
				},
				{
					"internalType": "uint256",
					"name": "_orderId",
					"type": "uint256"
				}
			],
			"name": "PayIn",
			"outputs": [],
			"stateMutability": "payable",
			"type": "function"
		},
		{
			"inputs": [
				{
					"internalType": "bytes32",
					"name": "",
					"type": "bytes32"
				}
			],
			"name": "PayoutAmount",
			"outputs": [
				{
					"internalType": "uint256",
					"name": "",
					"type": "uint256"
				}
			],
			"stateMutability": "view",
			"type": "function"
		},
		{
			"inputs": [
				{
					"internalType": "bytes32",
					"name": "",
					"type": "bytes32"
				}
			],
			"name": "PayoutBackToUser",
			"outputs": [
				{
					"internalType": "string",
					"name": "",
					"type": "string"
				}
			],
			"stateMutability": "view",
			"type": "function"
		},
		{
			"inputs": [
				{
					"internalType": "bytes32",
					"name": "",
					"type": "bytes32"
				}
			],
			"name": "PayoutToRecipient",
			"outputs": [
				{
					"internalType": "string",
					"name": "",
					"type": "string"
				}
			],
			"stateMutability": "view",
			"type": "function"
		},
		{
			"inputs": [
				{
					"internalType": "bytes32",
					"name": "",
					"type": "bytes32"
				}
			],
			"name": "PayoutUser",
			"outputs": [
				{
					"internalType": "string",
					"name": "",
					"type": "string"
				}
			],
			"stateMutability": "view",
			"type": "function"
		},
		{
			"inputs": [
				{
					"internalType": "bytes32",
					"name": "requestId",
					"type": "bytes32"
				},
				{
					"internalType": "bool",
					"name": "_isSuccess",
					"type": "bool"
				}
			],
			"name": "fulfill",
			"outputs": [],
			"stateMutability": "nonpayable",
			"type": "function"
		},
		{
			"inputs": [],
			"name": "getLatestPrice",
			"outputs": [
				{
					"internalType": "int256",
					"name": "",
					"type": "int256"
				}
			],
			"stateMutability": "view",
			"type": "function"
		},
		{
			"inputs": [],
			"name": "owner",
			"outputs": [
				{
					"internalType": "address",
					"name": "",
					"type": "address"
				}
			],
			"stateMutability": "view",
			"type": "function"
		},
		{
			"inputs": [],
			"name": "pause",
			"outputs": [],
			"stateMutability": "nonpayable",
			"type": "function"
		},
		{
			"inputs": [],
			"name": "paused",
			"outputs": [
				{
					"internalType": "bool",
					"name": "",
					"type": "bool"
				}
			],
			"stateMutability": "view",
			"type": "function"
		},
		{
			"inputs": [
				{
					"internalType": "bytes32",
					"name": "_requestId",
					"type": "bytes32"
				},
				{
					"internalType": "bool",
					"name": "_isSuccess",
					"type": "bool"
				}
			],
			"name": "payoutFulfill",
			"outputs": [],
			"stateMutability": "nonpayable",
			"type": "function"
		},
		{
			"inputs": [],
			"name": "renounceOwnership",
			"outputs": [],
			"stateMutability": "nonpayable",
			"type": "function"
		},
		{
			"inputs": [
				{
					"internalType": "address",
					"name": "_oracle",
					"type": "address"
				}
			],
			"name": "setOracle",
			"outputs": [],
			"stateMutability": "nonpayable",
			"type": "function"
		},
		{
			"inputs": [
				{
					"internalType": "string",
					"name": "_username",
					"type": "string"
				},
				{
					"internalType": "address",
					"name": "_payoutad",
					"type": "address"
				}
			],
			"name": "setPayout",
			"outputs": [],
			"stateMutability": "nonpayable",
			"type": "function"
		},
		{
			"inputs": [
				{
					"internalType": "address",
					"name": "newOwner",
					"type": "address"
				}
			],
			"name": "transferOwnership",
			"outputs": [],
			"stateMutability": "nonpayable",
			"type": "function"
		},
		{
			"inputs": [],
			"name": "unpause",
			"outputs": [],
			"stateMutability": "nonpayable",
			"type": "function"
		},
		{
			"inputs": [
				{
					"internalType": "string",
					"name": "",
					"type": "string"
				}
			],
			"name": "unverifiedPayoutAddresses",
			"outputs": [
				{
					"internalType": "address payable",
					"name": "",
					"type": "address"
				}
			],
			"stateMutability": "view",
			"type": "function"
		},
		{
			"inputs": [
				{
					"internalType": "uint256",
					"name": "newFee",
					"type": "uint256"
				}
			],
			"name": "updateAppFee",
			"outputs": [],
			"stateMutability": "nonpayable",
			"type": "function"
		},
		{
			"inputs": [
				{
					"internalType": "uint256",
					"name": "newFee",
					"type": "uint256"
				}
			],
			"name": "updateTgetherFee",
			"outputs": [],
			"stateMutability": "nonpayable",
			"type": "function"
		},
		{
			"inputs": [
				{
					"internalType": "string",
					"name": "",
					"type": "string"
				}
			],
			"name": "verifiedPayoutAddresses",
			"outputs": [
				{
					"internalType": "address payable",
					"name": "",
					"type": "address"
				}
			],
			"stateMutability": "view",
			"type": "function"
		},
		{
			"inputs": [],
			"name": "withdrawLink",
			"outputs": [],
			"stateMutability": "nonpayable",
			"type": "function"
		}
	]
}